{
  "address": "0xa349BD056e5A0E75ACa7909C35aAFD5fEA17520b",
  "abi": [
    {
      "inputs": [],
      "stateMutability": "nonpayable",
      "type": "constructor"
    },
    {
      "anonymous": false,
      "inputs": [
        {
          "indexed": true,
          "internalType": "address",
          "name": "account",
          "type": "address"
        },
        {
          "indexed": true,
          "internalType": "address",
          "name": "operator",
          "type": "address"
        },
        {
          "indexed": false,
          "internalType": "bool",
          "name": "approved",
          "type": "bool"
        }
      ],
      "name": "ApprovalForAll",
      "type": "event"
    },
    {
      "anonymous": false,
      "inputs": [
        {
          "indexed": true,
          "internalType": "address",
          "name": "previousOwner",
          "type": "address"
        },
        {
          "indexed": true,
          "internalType": "address",
          "name": "newOwner",
          "type": "address"
        }
      ],
      "name": "OwnershipTransferred",
      "type": "event"
    },
    {
      "anonymous": false,
      "inputs": [
        {
          "indexed": true,
          "internalType": "address",
          "name": "operator",
          "type": "address"
        },
        {
          "indexed": true,
          "internalType": "address",
          "name": "from",
          "type": "address"
        },
        {
          "indexed": true,
          "internalType": "address",
          "name": "to",
          "type": "address"
        },
        {
          "indexed": false,
          "internalType": "uint256[]",
          "name": "ids",
          "type": "uint256[]"
        },
        {
          "indexed": false,
          "internalType": "uint256[]",
          "name": "values",
          "type": "uint256[]"
        }
      ],
      "name": "TransferBatch",
      "type": "event"
    },
    {
      "anonymous": false,
      "inputs": [
        {
          "indexed": true,
          "internalType": "address",
          "name": "operator",
          "type": "address"
        },
        {
          "indexed": true,
          "internalType": "address",
          "name": "from",
          "type": "address"
        },
        {
          "indexed": true,
          "internalType": "address",
          "name": "to",
          "type": "address"
        },
        {
          "indexed": false,
          "internalType": "uint256",
          "name": "id",
          "type": "uint256"
        },
        {
          "indexed": false,
          "internalType": "uint256",
          "name": "value",
          "type": "uint256"
        }
      ],
      "name": "TransferSingle",
      "type": "event"
    },
    {
      "anonymous": false,
      "inputs": [
        {
          "indexed": false,
          "internalType": "string",
          "name": "value",
          "type": "string"
        },
        {
          "indexed": true,
          "internalType": "uint256",
          "name": "id",
          "type": "uint256"
        }
      ],
      "name": "URI",
      "type": "event"
    },
    {
      "inputs": [],
      "name": "MAX_SUPPLY",
      "outputs": [
        {
          "internalType": "uint256",
          "name": "",
          "type": "uint256"
        }
      ],
      "stateMutability": "view",
      "type": "function"
    },
    {
      "inputs": [],
      "name": "MY_NFT",
      "outputs": [
        {
          "internalType": "uint256",
          "name": "",
          "type": "uint256"
        }
      ],
      "stateMutability": "view",
      "type": "function"
    },
    {
      "inputs": [
        {
          "internalType": "address",
          "name": "account",
          "type": "address"
        },
        {
          "internalType": "uint256",
          "name": "id",
          "type": "uint256"
        }
      ],
      "name": "balanceOf",
      "outputs": [
        {
          "internalType": "uint256",
          "name": "",
          "type": "uint256"
        }
      ],
      "stateMutability": "view",
      "type": "function"
    },
    {
      "inputs": [
        {
          "internalType": "address[]",
          "name": "accounts",
          "type": "address[]"
        },
        {
          "internalType": "uint256[]",
          "name": "ids",
          "type": "uint256[]"
        }
      ],
      "name": "balanceOfBatch",
      "outputs": [
        {
          "internalType": "uint256[]",
          "name": "",
          "type": "uint256[]"
        }
      ],
      "stateMutability": "view",
      "type": "function"
    },
    {
      "inputs": [
        {
          "internalType": "address",
          "name": "account",
          "type": "address"
        },
        {
          "internalType": "address",
          "name": "operator",
          "type": "address"
        }
      ],
      "name": "isApprovedForAll",
      "outputs": [
        {
          "internalType": "bool",
          "name": "",
          "type": "bool"
        }
      ],
      "stateMutability": "view",
      "type": "function"
    },
    {
      "inputs": [
        {
          "internalType": "address",
          "name": "account",
          "type": "address"
        },
        {
          "internalType": "uint256",
          "name": "amount",
          "type": "uint256"
        },
        {
          "internalType": "bytes",
          "name": "data",
          "type": "bytes"
        }
      ],
      "name": "mint",
      "outputs": [],
      "stateMutability": "nonpayable",
      "type": "function"
    },
    {
      "inputs": [],
      "name": "owner",
      "outputs": [
        {
          "internalType": "address",
          "name": "",
          "type": "address"
        }
      ],
      "stateMutability": "view",
      "type": "function"
    },
    {
      "inputs": [],
      "name": "renounceOwnership",
      "outputs": [],
      "stateMutability": "nonpayable",
      "type": "function"
    },
    {
      "inputs": [
        {
          "internalType": "address",
          "name": "from",
          "type": "address"
        },
        {
          "internalType": "address",
          "name": "to",
          "type": "address"
        },
        {
          "internalType": "uint256[]",
          "name": "ids",
          "type": "uint256[]"
        },
        {
          "internalType": "uint256[]",
          "name": "amounts",
          "type": "uint256[]"
        },
        {
          "internalType": "bytes",
          "name": "data",
          "type": "bytes"
        }
      ],
      "name": "safeBatchTransferFrom",
      "outputs": [],
      "stateMutability": "nonpayable",
      "type": "function"
    },
    {
      "inputs": [
        {
          "internalType": "address",
          "name": "from",
          "type": "address"
        },
        {
          "internalType": "address",
          "name": "to",
          "type": "address"
        },
        {
          "internalType": "uint256",
          "name": "id",
          "type": "uint256"
        },
        {
          "internalType": "uint256",
          "name": "amount",
          "type": "uint256"
        },
        {
          "internalType": "bytes",
          "name": "data",
          "type": "bytes"
        }
      ],
      "name": "safeTransferFrom",
      "outputs": [],
      "stateMutability": "nonpayable",
      "type": "function"
    },
    {
      "inputs": [
        {
          "internalType": "address",
          "name": "operator",
          "type": "address"
        },
        {
          "internalType": "bool",
          "name": "approved",
          "type": "bool"
        }
      ],
      "name": "setApprovalForAll",
      "outputs": [],
      "stateMutability": "nonpayable",
      "type": "function"
    },
    {
      "inputs": [
        {
          "internalType": "string",
          "name": "newuri",
          "type": "string"
        }
      ],
      "name": "setURI",
      "outputs": [],
      "stateMutability": "nonpayable",
      "type": "function"
    },
    {
      "inputs": [
        {
          "internalType": "bytes4",
          "name": "interfaceId",
          "type": "bytes4"
        }
      ],
      "name": "supportsInterface",
      "outputs": [
        {
          "internalType": "bool",
          "name": "",
          "type": "bool"
        }
      ],
      "stateMutability": "view",
      "type": "function"
    },
    {
      "inputs": [
        {
          "internalType": "uint256",
          "name": "id",
          "type": "uint256"
        }
      ],
      "name": "totalSupply",
      "outputs": [
        {
          "internalType": "uint256",
          "name": "",
          "type": "uint256"
        }
      ],
      "stateMutability": "view",
      "type": "function"
    },
    {
      "inputs": [
        {
          "internalType": "address",
          "name": "newOwner",
          "type": "address"
        }
      ],
      "name": "transferOwnership",
      "outputs": [],
      "stateMutability": "nonpayable",
      "type": "function"
    },
    {
      "inputs": [
        {
          "internalType": "uint256",
          "name": "",
          "type": "uint256"
        }
      ],
      "name": "uri",
      "outputs": [
        {
          "internalType": "string",
          "name": "",
          "type": "string"
        }
      ],
      "stateMutability": "view",
      "type": "function"
    }
  ],
  "transactionHash": "0xe832d58a882c2c63933be33ef695dbaa49488ccee491f0fbc15dd9101d4c1092",
  "args": [],
  "numDeployments": 1,
  "solcInputHash": "8b8b623ca7f7b6a4b9a130057ee07508",
  "bytecode": "0x60806040523480156200001157600080fd5b50604051806080016040528060528152602001620020c96052913962000037816200006f565b50620000433362000081565b62000069336001610bb860405180602001604052806000815250620000d360201b60201c565b62000783565b60026200007d8282620004c7565b5050565b600380546001600160a01b038381166001600160a01b0319831681179093556040519116919082907f8be0079c531659141344cd1fd0a4f28419497f9722a3daafe3b4186f6b6457e090600090a35050565b6001600160a01b038416620001395760405162461bcd60e51b815260206004820152602160248201527f455243313135353a206d696e7420746f20746865207a65726f206164647265736044820152607360f81b60648201526084015b60405180910390fd5b3360006200014785620001f5565b905060006200015685620001f5565b90506000868152602081815260408083206001600160a01b038b168452909152812080548792906200018a90849062000593565b909155505060408051878152602081018790526001600160a01b03808a1692600092918716917fc3d58168c5ae7397731d063d5bbf3d657854427343f4c083240f7aacaa2d0f62910160405180910390a4620001ec836000898989896200024b565b50505050505050565b60408051600180825281830190925260609160009190602080830190803683370190505090508281600081518110620002325762000232620005bb565b602090810291909101015292915050565b505050505050565b6200026a846001600160a01b03166200041760201b620006ea1760201c565b15620002435760405163f23a6e6160e01b81526001600160a01b0385169063f23a6e6190620002a6908990899088908890889060040162000619565b6020604051808303816000875af1925050508015620002e4575060408051601f3d908101601f19168201909252620002e19181019062000660565b60015b620003a457620002f362000693565b806308c379a0036200033357506200030a620006df565b8062000317575062000335565b8060405162461bcd60e51b81526004016200013091906200076e565b505b60405162461bcd60e51b815260206004820152603460248201527f455243313135353a207472616e7366657220746f206e6f6e2d4552433131353560448201527f526563656976657220696d706c656d656e746572000000000000000000000000606482015260840162000130565b6001600160e01b0319811663f23a6e6160e01b14620001ec5760405162461bcd60e51b815260206004820152602860248201527f455243313135353a204552433131353552656365697665722072656a656374656044820152676420746f6b656e7360c01b606482015260840162000130565b6001600160a01b03163b151590565b634e487b7160e01b600052604160045260246000fd5b600181811c908216806200045157607f821691505b6020821081036200047257634e487b7160e01b600052602260045260246000fd5b50919050565b601f821115620004c257600081815260208120601f850160051c81016020861015620004a15750805b601f850160051c820191505b818110156200024357828155600101620004ad565b505050565b81516001600160401b03811115620004e357620004e362000426565b620004fb81620004f484546200043c565b8462000478565b602080601f8311600181146200053357600084156200051a5750858301515b600019600386901b1c1916600185901b17855562000243565b600085815260208120601f198616915b82811015620005645788860151825594840194600190910190840162000543565b5085821015620005835787850151600019600388901b60f8161c191681555b5050505050600190811b01905550565b80820180821115620005b557634e487b7160e01b600052601160045260246000fd5b92915050565b634e487b7160e01b600052603260045260246000fd5b6000815180845260005b81811015620005f957602081850181015186830182015201620005db565b506000602082860101526020601f19601f83011685010191505092915050565b6001600160a01b03868116825285166020820152604081018490526060810183905260a0608082018190526000906200065590830184620005d1565b979650505050505050565b6000602082840312156200067357600080fd5b81516001600160e01b0319811681146200068c57600080fd5b9392505050565b600060033d1115620006ad5760046000803e5060005160e01c5b90565b601f8201601f191681016001600160401b0381118282101715620006d857620006d862000426565b6040525050565b600060443d1015620006ee5790565b6040516003193d81016004833e81513d6001600160401b0380831160248401831017156200071e57505050505090565b8285019150815181811115620007375750505050505090565b843d8701016020828501011115620007525750505050505090565b6200076360208286010187620006b0565b509095945050505050565b6020815260006200068c6020830184620005d1565b61193680620007936000396000f3fe608060405234801561001057600080fd5b50600436106100ff5760003560e01c8063715018a611610097578063bd85b03911610066578063bd85b0391461020f578063e985e9c514610222578063f242432a1461025e578063f2fde38b1461027157600080fd5b8063715018a6146101c65780638da5cb5b146101ce57806394d008ef146101e9578063a22cb465146101fc57600080fd5b80632eb2c2d6116100d35780632eb2c2d61461018257806332cb6b0c146101955780634e1273f41461019e5780636ced38fa146101be57600080fd5b8062fdd58e1461010457806301ffc9a71461012a57806302fe53051461014d5780630e89341c14610162575b600080fd5b610117610112366004610f29565b610284565b6040519081526020015b60405180910390f35b61013d610138366004610f69565b61031d565b6040519015158152602001610121565b61016061015b36600461102e565b61036d565b005b61017561017036600461107f565b610381565b60405161012191906110de565b6101606101903660046111a6565b610415565b610117610bb881565b6101b16101ac366004611250565b610461565b6040516101219190611356565b610117600181565b61016061058b565b6003546040516001600160a01b039091168152602001610121565b6101606101f7366004611369565b61059f565b61016061020a3660046113c0565b610614565b61011761021d36600461107f565b610623565b61013d6102303660046113fc565b6001600160a01b03918216600090815260016020908152604080832093909416825291909152205460ff1690565b61016061026c36600461142f565b61062f565b61016061027f366004611494565b610674565b60006001600160a01b0383166102f45760405162461bcd60e51b815260206004820152602a60248201527f455243313135353a2061646472657373207a65726f206973206e6f742061207660448201526930b634b21037bbb732b960b11b60648201526084015b60405180910390fd5b506000818152602081815260408083206001600160a01b03861684529091529020545b92915050565b60006001600160e01b03198216636cdb3d1360e11b148061034e57506001600160e01b031982166303a24d0760e21b145b8061031757506301ffc9a760e01b6001600160e01b0319831614610317565b6103756106f9565b61037e81610753565b50565b606060028054610390906114af565b80601f01602080910402602001604051908101604052809291908181526020018280546103bc906114af565b80156104095780601f106103de57610100808354040283529160200191610409565b820191906000526020600020905b8154815290600101906020018083116103ec57829003601f168201915b50505050509050919050565b6001600160a01b03851633148061043157506104318533610230565b61044d5760405162461bcd60e51b81526004016102eb906114e9565b61045a858585858561075f565b5050505050565b606081518351146104c65760405162461bcd60e51b815260206004820152602960248201527f455243313135353a206163636f756e747320616e6420696473206c656e677468604482015268040dad2e6dac2e8c6d60bb1b60648201526084016102eb565b6000835167ffffffffffffffff8111156104e2576104e2610f8d565b60405190808252806020026020018201604052801561050b578160200160208202803683370190505b50905060005b84518110156105835761055685828151811061052f5761052f611537565b602002602001015185838151811061054957610549611537565b6020026020010151610284565b82828151811061056857610568611537565b602090810291909101015261057c81611563565b9050610511565b509392505050565b6105936106f9565b61059d600061093c565b565b6105a76106f9565b610bb8826105b56001610623565b6105bf919061157c565b11156106025760405162461bcd60e51b815260206004820152601260248201527145786365656473206d617820737570706c7960701b60448201526064016102eb565b61060f836001848461098e565b505050565b61061f338383610aa2565b5050565b60006103173083610284565b6001600160a01b03851633148061064b575061064b8533610230565b6106675760405162461bcd60e51b81526004016102eb906114e9565b61045a8585858585610b82565b61067c6106f9565b6001600160a01b0381166106e15760405162461bcd60e51b815260206004820152602660248201527f4f776e61626c653a206e6577206f776e657220697320746865207a65726f206160448201526564647265737360d01b60648201526084016102eb565b61037e8161093c565b6001600160a01b03163b151590565b6003546001600160a01b0316331461059d5760405162461bcd60e51b815260206004820181905260248201527f4f776e61626c653a2063616c6c6572206973206e6f7420746865206f776e657260448201526064016102eb565b600261061f82826115d5565b81518351146107c15760405162461bcd60e51b815260206004820152602860248201527f455243313135353a2069647320616e6420616d6f756e7473206c656e677468206044820152670dad2e6dac2e8c6d60c31b60648201526084016102eb565b6001600160a01b0384166107e75760405162461bcd60e51b81526004016102eb90611695565b3360005b84518110156108ce57600085828151811061080857610808611537565b60200260200101519050600085838151811061082657610826611537565b602090810291909101810151600084815280835260408082206001600160a01b038e1683529093529190912054909150818110156108765760405162461bcd60e51b81526004016102eb906116da565b6000838152602081815260408083206001600160a01b038e8116855292528083208585039055908b168252812080548492906108b390849061157c565b92505081905550505050806108c790611563565b90506107eb565b50846001600160a01b0316866001600160a01b0316826001600160a01b03167f4a39dc06d4c0dbc64b70af90fd698a233a518aa5d07e595d983b8c0526c8f7fb878760405161091e929190611724565b60405180910390a4610934818787878787610cac565b505050505050565b600380546001600160a01b038381166001600160a01b0319831681179093556040519116919082907f8be0079c531659141344cd1fd0a4f28419497f9722a3daafe3b4186f6b6457e090600090a35050565b6001600160a01b0384166109ee5760405162461bcd60e51b815260206004820152602160248201527f455243313135353a206d696e7420746f20746865207a65726f206164647265736044820152607360f81b60648201526084016102eb565b3360006109fa85610e07565b90506000610a0785610e07565b90506000868152602081815260408083206001600160a01b038b16845290915281208054879290610a3990849061157c565b909155505060408051878152602081018790526001600160a01b03808a1692600092918716917fc3d58168c5ae7397731d063d5bbf3d657854427343f4c083240f7aacaa2d0f62910160405180910390a4610a9983600089898989610e52565b50505050505050565b816001600160a01b0316836001600160a01b031603610b155760405162461bcd60e51b815260206004820152602960248201527f455243313135353a2073657474696e6720617070726f76616c20737461747573604482015268103337b91039b2b63360b91b60648201526084016102eb565b6001600160a01b03838116600081815260016020908152604080832094871680845294825291829020805460ff191686151590811790915591519182527f17307eab39ab6107e8899845ad3d59bd9653f200f220920489ca2b5937696c31910160405180910390a3505050565b6001600160a01b038416610ba85760405162461bcd60e51b81526004016102eb90611695565b336000610bb485610e07565b90506000610bc185610e07565b90506000868152602081815260408083206001600160a01b038c16845290915290205485811015610c045760405162461bcd60e51b81526004016102eb906116da565b6000878152602081815260408083206001600160a01b038d8116855292528083208985039055908a16825281208054889290610c4190849061157c565b909155505060408051888152602081018890526001600160a01b03808b16928c821692918816917fc3d58168c5ae7397731d063d5bbf3d657854427343f4c083240f7aacaa2d0f62910160405180910390a4610ca1848a8a8a8a8a610e52565b505050505050505050565b6001600160a01b0384163b156109345760405163bc197c8160e01b81526001600160a01b0385169063bc197c8190610cf09089908990889088908890600401611752565b6020604051808303816000875af1925050508015610d2b575060408051601f3d908101601f19168201909252610d28918101906117b0565b60015b610dd757610d376117cd565b806308c379a003610d705750610d4b6117e9565b80610d565750610d72565b8060405162461bcd60e51b81526004016102eb91906110de565b505b60405162461bcd60e51b815260206004820152603460248201527f455243313135353a207472616e7366657220746f206e6f6e2d455243313135356044820152732932b1b2b4bb32b91034b6b83632b6b2b73a32b960611b60648201526084016102eb565b6001600160e01b0319811663bc197c8160e01b14610a995760405162461bcd60e51b81526004016102eb90611873565b60408051600180825281830190925260609160009190602080830190803683370190505090508281600081518110610e4157610e41611537565b602090810291909101015292915050565b6001600160a01b0384163b156109345760405163f23a6e6160e01b81526001600160a01b0385169063f23a6e6190610e9690899089908890889088906004016118bb565b6020604051808303816000875af1925050508015610ed1575060408051601f3d908101601f19168201909252610ece918101906117b0565b60015b610edd57610d376117cd565b6001600160e01b0319811663f23a6e6160e01b14610a995760405162461bcd60e51b81526004016102eb90611873565b80356001600160a01b0381168114610f2457600080fd5b919050565b60008060408385031215610f3c57600080fd5b610f4583610f0d565b946020939093013593505050565b6001600160e01b03198116811461037e57600080fd5b600060208284031215610f7b57600080fd5b8135610f8681610f53565b9392505050565b634e487b7160e01b600052604160045260246000fd5b601f8201601f1916810167ffffffffffffffff81118282101715610fc957610fc9610f8d565b6040525050565b600067ffffffffffffffff831115610fea57610fea610f8d565b604051611001601f8501601f191660200182610fa3565b80915083815284848401111561101657600080fd5b83836020830137600060208583010152509392505050565b60006020828403121561104057600080fd5b813567ffffffffffffffff81111561105757600080fd5b8201601f8101841361106857600080fd5b61107784823560208401610fd0565b949350505050565b60006020828403121561109157600080fd5b5035919050565b6000815180845260005b818110156110be576020818501810151868301820152016110a2565b506000602082860101526020601f19601f83011685010191505092915050565b602081526000610f866020830184611098565b600067ffffffffffffffff82111561110b5761110b610f8d565b5060051b60200190565b600082601f83011261112657600080fd5b81356020611133826110f1565b6040516111408282610fa3565b83815260059390931b850182019282810191508684111561116057600080fd5b8286015b8481101561117b5780358352918301918301611164565b509695505050505050565b600082601f83011261119757600080fd5b610f8683833560208501610fd0565b600080600080600060a086880312156111be57600080fd5b6111c786610f0d565b94506111d560208701610f0d565b9350604086013567ffffffffffffffff808211156111f257600080fd5b6111fe89838a01611115565b9450606088013591508082111561121457600080fd5b61122089838a01611115565b9350608088013591508082111561123657600080fd5b5061124388828901611186565b9150509295509295909350565b6000806040838503121561126357600080fd5b823567ffffffffffffffff8082111561127b57600080fd5b818501915085601f83011261128f57600080fd5b8135602061129c826110f1565b6040516112a98282610fa3565b83815260059390931b85018201928281019150898411156112c957600080fd5b948201945b838610156112ee576112df86610f0d565b825294820194908201906112ce565b9650508601359250508082111561130457600080fd5b5061131185828601611115565b9150509250929050565b600081518084526020808501945080840160005b8381101561134b5781518752958201959082019060010161132f565b509495945050505050565b602081526000610f86602083018461131b565b60008060006060848603121561137e57600080fd5b61138784610f0d565b925060208401359150604084013567ffffffffffffffff8111156113aa57600080fd5b6113b686828701611186565b9150509250925092565b600080604083850312156113d357600080fd5b6113dc83610f0d565b9150602083013580151581146113f157600080fd5b809150509250929050565b6000806040838503121561140f57600080fd5b61141883610f0d565b915061142660208401610f0d565b90509250929050565b600080600080600060a0868803121561144757600080fd5b61145086610f0d565b945061145e60208701610f0d565b93506040860135925060608601359150608086013567ffffffffffffffff81111561148857600080fd5b61124388828901611186565b6000602082840312156114a657600080fd5b610f8682610f0d565b600181811c908216806114c357607f821691505b6020821081036114e357634e487b7160e01b600052602260045260246000fd5b50919050565b6020808252602e908201527f455243313135353a2063616c6c6572206973206e6f7420746f6b656e206f776e60408201526d195c881bdc88185c1c1c9bdd995960921b606082015260800190565b634e487b7160e01b600052603260045260246000fd5b634e487b7160e01b600052601160045260246000fd5b6000600182016115755761157561154d565b5060010190565b808201808211156103175761031761154d565b601f82111561060f57600081815260208120601f850160051c810160208610156115b65750805b601f850160051c820191505b81811015610934578281556001016115c2565b815167ffffffffffffffff8111156115ef576115ef610f8d565b611603816115fd84546114af565b8461158f565b602080601f83116001811461163857600084156116205750858301515b600019600386901b1c1916600185901b178555610934565b600085815260208120601f198616915b8281101561166757888601518255948401946001909101908401611648565b50858210156116855787850151600019600388901b60f8161c191681555b5050505050600190811b01905550565b60208082526025908201527f455243313135353a207472616e7366657220746f20746865207a65726f206164604082015264647265737360d81b606082015260800190565b6020808252602a908201527f455243313135353a20696e73756666696369656e742062616c616e636520666f60408201526939103a3930b739b332b960b11b606082015260800190565b604081526000611737604083018561131b565b8281036020840152611749818561131b565b95945050505050565b6001600160a01b0386811682528516602082015260a06040820181905260009061177e9083018661131b565b8281036060840152611790818661131b565b905082810360808401526117a48185611098565b98975050505050505050565b6000602082840312156117c257600080fd5b8151610f8681610f53565b600060033d11156117e65760046000803e5060005160e01c5b90565b600060443d10156117f75790565b6040516003193d81016004833e81513d67ffffffffffffffff816024840111818411171561182757505050505090565b828501915081518181111561183f5750505050505090565b843d87010160208285010111156118595750505050505090565b61186860208286010187610fa3565b509095945050505050565b60208082526028908201527f455243313135353a204552433131353552656365697665722072656a656374656040820152676420746f6b656e7360c01b606082015260800190565b6001600160a01b03868116825285166020820152604081018490526060810183905260a0608082018190526000906118f590830184611098565b97965050505050505056fea2646970667358221220bcbdeb5ba061b7f009cd16a1d9f54b9527b2e77f17baa69bae8c0ecf8e31960964736f6c6343000811003368747470733a2f2f64726976652e676f6f676c652e636f6d2f66696c652f642f315f34673554666356437967316e795f7a305778795862312d566d66544a6a51612f766965773f7573703d73686172696e67",
  "devdoc": {
    "kind": "dev",
    "methods": {
      "balanceOf(address,uint256)": {
        "details": "See {IERC1155-balanceOf}. Requirements: - `account` cannot be the zero address."
      },
      "balanceOfBatch(address[],uint256[])": {
        "details": "See {IERC1155-balanceOfBatch}. Requirements: - `accounts` and `ids` must have the same length."
      },
      "isApprovedForAll(address,address)": {
        "details": "See {IERC1155-isApprovedForAll}."
      },
      "owner()": {
        "details": "Returns the address of the current owner."
      },
      "renounceOwnership()": {
        "details": "Leaves the contract without owner. It will not be possible to call `onlyOwner` functions. Can only be called by the current owner. NOTE: Renouncing ownership will leave the contract without an owner, thereby disabling any functionality that is only available to the owner."
      },
      "safeBatchTransferFrom(address,address,uint256[],uint256[],bytes)": {
        "details": "See {IERC1155-safeBatchTransferFrom}."
      },
      "safeTransferFrom(address,address,uint256,uint256,bytes)": {
        "details": "See {IERC1155-safeTransferFrom}."
      },
      "setApprovalForAll(address,bool)": {
        "details": "See {IERC1155-setApprovalForAll}."
      },
      "supportsInterface(bytes4)": {
        "details": "See {IERC165-supportsInterface}."
      },
      "transferOwnership(address)": {
        "details": "Transfers ownership of the contract to a new account (`newOwner`). Can only be called by the current owner."
      },
      "uri(uint256)": {
        "details": "See {IERC1155MetadataURI-uri}. This implementation returns the same URI for *all* token types. It relies on the token type ID substitution mechanism https://eips.ethereum.org/EIPS/eip-1155#metadata[defined in the EIP]. Clients calling this function must replace the `\\{id\\}` substring with the actual token type ID."
      }
    },
    "version": 1
  },
  "userdoc": {
    "kind": "user",
    "methods": {},
    "version": 1
  },
  "storageLayout": {
    "storage": [
      {
        "astId": 138,
        "contract": "contracts/SportCarCollectible.sol:SportCarCollectible",
        "label": "_balances",
        "offset": 0,
        "slot": "0",
        "type": "t_mapping(t_uint256,t_mapping(t_address,t_uint256))"
      },
      {
        "astId": 144,
        "contract": "contracts/SportCarCollectible.sol:SportCarCollectible",
        "label": "_operatorApprovals",
        "offset": 0,
        "slot": "1",
        "type": "t_mapping(t_address,t_mapping(t_address,t_bool))"
      },
      {
        "astId": 146,
        "contract": "contracts/SportCarCollectible.sol:SportCarCollectible",
        "label": "_uri",
        "offset": 0,
        "slot": "2",
        "type": "t_string_storage"
      },
      {
        "astId": 7,
        "contract": "contracts/SportCarCollectible.sol:SportCarCollectible",
        "label": "_owner",
        "offset": 0,
        "slot": "3",
        "type": "t_address"
      }
    ],
    "types": {
      "t_address": {
        "encoding": "inplace",
        "label": "address",
        "numberOfBytes": "20"
      },
      "t_bool": {
        "encoding": "inplace",
        "label": "bool",
        "numberOfBytes": "1"
      },
      "t_mapping(t_address,t_bool)": {
        "encoding": "mapping",
        "key": "t_address",
        "label": "mapping(address => bool)",
        "numberOfBytes": "32",
        "value": "t_bool"
      },
      "t_mapping(t_address,t_mapping(t_address,t_bool))": {
        "encoding": "mapping",
        "key": "t_address",
        "label": "mapping(address => mapping(address => bool))",
        "numberOfBytes": "32",
        "value": "t_mapping(t_address,t_bool)"
      },
      "t_mapping(t_address,t_uint256)": {
        "encoding": "mapping",
        "key": "t_address",
        "label": "mapping(address => uint256)",
        "numberOfBytes": "32",
        "value": "t_uint256"
      },
      "t_mapping(t_uint256,t_mapping(t_address,t_uint256))": {
        "encoding": "mapping",
        "key": "t_uint256",
        "label": "mapping(uint256 => mapping(address => uint256))",
        "numberOfBytes": "32",
        "value": "t_mapping(t_address,t_uint256)"
      },
      "t_string_storage": {
        "encoding": "bytes",
        "label": "string",
        "numberOfBytes": "32"
      },
      "t_uint256": {
        "encoding": "inplace",
        "label": "uint256",
        "numberOfBytes": "32"
      }
    }
  }
}