{
  "address": "0x7028b7C553331e52346fA8b923568455bE718eA4",
  "abi": [
    {
      "anonymous": false,
      "inputs": [
        {
          "indexed": true,
          "internalType": "address",
          "name": "nftContract",
          "type": "address"
        },
        {
          "indexed": true,
          "internalType": "uint256",
          "name": "tokenId",
          "type": "uint256"
        },
        {
          "indexed": true,
          "internalType": "address",
          "name": "user",
          "type": "address"
        },
        {
          "indexed": false,
          "internalType": "bool",
          "name": "isBuyOrder",
          "type": "bool"
        }
      ],
      "name": "OrderCancelled",
      "type": "event"
    },
    {
      "anonymous": false,
      "inputs": [
        {
          "indexed": true,
          "internalType": "address",
          "name": "nftContract",
          "type": "address"
        },
        {
          "indexed": true,
          "internalType": "uint256",
          "name": "tokenId",
          "type": "uint256"
        },
        {
          "indexed": true,
          "internalType": "address",
          "name": "seller",
          "type": "address"
        },
        {
          "indexed": false,
          "internalType": "address",
          "name": "buyer",
          "type": "address"
        },
        {
          "indexed": false,
          "internalType": "uint256",
          "name": "price",
          "type": "uint256"
        },
        {
          "indexed": false,
          "internalType": "uint256",
          "name": "amount",
          "type": "uint256"
        }
      ],
      "name": "OrderFulfilled",
      "type": "event"
    },
    {
      "anonymous": false,
      "inputs": [
        {
          "indexed": true,
          "internalType": "address",
          "name": "nftContract",
          "type": "address"
        },
        {
          "indexed": true,
          "internalType": "uint256",
          "name": "tokenId",
          "type": "uint256"
        },
        {
          "indexed": true,
          "internalType": "address",
          "name": "user",
          "type": "address"
        },
        {
          "indexed": false,
          "internalType": "uint256",
          "name": "price",
          "type": "uint256"
        },
        {
          "indexed": false,
          "internalType": "uint256",
          "name": "amount",
          "type": "uint256"
        },
        {
          "indexed": false,
          "internalType": "bool",
          "name": "isBuyOrder",
          "type": "bool"
        }
      ],
      "name": "OrderPlaced",
      "type": "event"
    },
    {
      "inputs": [
        {
          "internalType": "address",
          "name": "nftContract",
          "type": "address"
        },
        {
          "internalType": "uint256",
          "name": "tokenId",
          "type": "uint256"
        },
        {
          "internalType": "uint256",
          "name": "orderIndex",
          "type": "uint256"
        }
      ],
      "name": "cancelOrder",
      "outputs": [],
      "stateMutability": "nonpayable",
      "type": "function"
    },
    {
      "inputs": [
        {
          "internalType": "address",
          "name": "nftContract",
          "type": "address"
        },
        {
          "internalType": "uint256",
          "name": "tokenId",
          "type": "uint256"
        },
        {
          "internalType": "uint256",
          "name": "orderIndex",
          "type": "uint256"
        }
      ],
      "name": "fulfillOrder",
      "outputs": [],
      "stateMutability": "payable",
      "type": "function"
    },
    {
      "inputs": [
        {
          "internalType": "address",
          "name": "nftContract",
          "type": "address"
        },
        {
          "internalType": "uint256",
          "name": "tokenId",
          "type": "uint256"
        }
      ],
      "name": "getHighestBuyPrice",
      "outputs": [
        {
          "internalType": "uint256",
          "name": "",
          "type": "uint256"
        }
      ],
      "stateMutability": "view",
      "type": "function"
    },
    {
      "inputs": [
        {
          "internalType": "address",
          "name": "nftContract",
          "type": "address"
        },
        {
          "internalType": "uint256",
          "name": "tokenId",
          "type": "uint256"
        }
      ],
      "name": "getLowestSellPrice",
      "outputs": [
        {
          "internalType": "uint256",
          "name": "",
          "type": "uint256"
        }
      ],
      "stateMutability": "view",
      "type": "function"
    },
    {
      "inputs": [
        {
          "internalType": "address",
          "name": "nftContract",
          "type": "address"
        },
        {
          "internalType": "uint256",
          "name": "tokenId",
          "type": "uint256"
        }
      ],
      "name": "getOrders",
      "outputs": [
        {
          "components": [
            {
              "internalType": "address",
              "name": "user",
              "type": "address"
            },
            {
              "internalType": "uint256",
              "name": "price",
              "type": "uint256"
            },
            {
              "internalType": "uint256",
              "name": "amount",
              "type": "uint256"
            },
            {
              "internalType": "bool",
              "name": "isBuyOrder",
              "type": "bool"
            }
          ],
          "internalType": "struct NFTMarketplace.Order[]",
          "name": "",
          "type": "tuple[]"
        }
      ],
      "stateMutability": "view",
      "type": "function"
    },
    {
      "inputs": [
        {
          "internalType": "address",
          "name": "",
          "type": "address"
        },
        {
          "internalType": "address",
          "name": "",
          "type": "address"
        },
        {
          "internalType": "uint256[]",
          "name": "",
          "type": "uint256[]"
        },
        {
          "internalType": "uint256[]",
          "name": "",
          "type": "uint256[]"
        },
        {
          "internalType": "bytes",
          "name": "",
          "type": "bytes"
        }
      ],
      "name": "onERC1155BatchReceived",
      "outputs": [
        {
          "internalType": "bytes4",
          "name": "",
          "type": "bytes4"
        }
      ],
      "stateMutability": "nonpayable",
      "type": "function"
    },
    {
      "inputs": [
        {
          "internalType": "address",
          "name": "",
          "type": "address"
        },
        {
          "internalType": "address",
          "name": "",
          "type": "address"
        },
        {
          "internalType": "uint256",
          "name": "",
          "type": "uint256"
        },
        {
          "internalType": "uint256",
          "name": "",
          "type": "uint256"
        },
        {
          "internalType": "bytes",
          "name": "",
          "type": "bytes"
        }
      ],
      "name": "onERC1155Received",
      "outputs": [
        {
          "internalType": "bytes4",
          "name": "",
          "type": "bytes4"
        }
      ],
      "stateMutability": "nonpayable",
      "type": "function"
    },
    {
      "inputs": [
        {
          "internalType": "address",
          "name": "",
          "type": "address"
        },
        {
          "internalType": "uint256",
          "name": "",
          "type": "uint256"
        },
        {
          "internalType": "uint256",
          "name": "",
          "type": "uint256"
        }
      ],
      "name": "orders",
      "outputs": [
        {
          "internalType": "address",
          "name": "user",
          "type": "address"
        },
        {
          "internalType": "uint256",
          "name": "price",
          "type": "uint256"
        },
        {
          "internalType": "uint256",
          "name": "amount",
          "type": "uint256"
        },
        {
          "internalType": "bool",
          "name": "isBuyOrder",
          "type": "bool"
        }
      ],
      "stateMutability": "view",
      "type": "function"
    },
    {
      "inputs": [
        {
          "internalType": "address",
          "name": "nftContract",
          "type": "address"
        },
        {
          "internalType": "uint256",
          "name": "tokenId",
          "type": "uint256"
        },
        {
          "internalType": "uint256",
          "name": "price",
          "type": "uint256"
        },
        {
          "internalType": "uint256",
          "name": "amount",
          "type": "uint256"
        },
        {
          "internalType": "bool",
          "name": "isBuyOrder",
          "type": "bool"
        }
      ],
      "name": "placeOrder",
      "outputs": [],
      "stateMutability": "payable",
      "type": "function"
    },
    {
      "inputs": [
        {
          "internalType": "bytes4",
          "name": "interfaceId",
          "type": "bytes4"
        }
      ],
      "name": "supportsInterface",
      "outputs": [
        {
          "internalType": "bool",
          "name": "",
          "type": "bool"
        }
      ],
      "stateMutability": "view",
      "type": "function"
    }
  ],
  "transactionHash": "0xcc964d78a408cc910aed2122c985348a4de51afd6099ff16a015a4616cea1141",
  "args": [],
  "numDeployments": 3,
  "solcInputHash": "f4d42271e9e622f03b55bd6b2e99e86d",
  "bytecode": "0x608060405234801561001057600080fd5b506001600055611707806100256000396000f3fe6080604052600436106100915760003560e01c806393592a211161005957806393592a2114610179578063bc197c81146101a7578063c3bccc22146101ec578063d638278a146101ff578063f23a6e611461021f57600080fd5b806301ffc9a7146100965780630c08497b146100cb5780634472d299146100f857806372ef6c8b1461011a57806386c817ea1461012d575b600080fd5b3480156100a257600080fd5b506100b66100b136600461125c565b61024b565b60405190151581526020015b60405180910390f35b3480156100d757600080fd5b506100eb6100e63660046112a9565b610282565b6040516100c291906112d3565b34801561010457600080fd5b50610118610113366004611342565b610330565b005b610118610128366004611342565b6106cc565b34801561013957600080fd5b5061014d610148366004611342565b610c21565b604080516001600160a01b039095168552602085019390935291830152151560608201526080016100c2565b34801561018557600080fd5b506101996101943660046112a9565b610c83565b6040519081526020016100c2565b3480156101b357600080fd5b506101d36101c23660046114ac565b63bc197c8160e01b95945050505050565b6040516001600160e01b031990911681526020016100c2565b6101186101fa366004611556565b610dc7565b34801561020b57600080fd5b5061019961021a3660046112a9565b6110d5565b34801561022b57600080fd5b506101d361023a3660046115af565b63f23a6e6160e01b95945050505050565b60006001600160e01b03198216630271189760e51b148061027c57506301ffc9a760e01b6001600160e01b03198316145b92915050565b6001600160a01b03821660009081526001602090815260408083208484528252808320805482518185028101850190935280835260609492939192909184015b82821015610324576000848152602090819020604080516080810182526004860290920180546001600160a01b03168352600180820154848601526002820154928401929092526003015460ff161515606083015290835290920191016102c2565b50505050905092915050565b6001600160a01b0383166000908152600160209081526040808320858452909152902054811061039d5760405162461bcd60e51b8152602060048201526013602482015272092dcecc2d8d2c840dee4c8cae440d2dcc8caf606b1b60448201526064015b60405180910390fd5b6001600160a01b038316600090815260016020908152604080832085845290915281208054839081106103d2576103d2611614565b600091825260209182902060408051608081018252600490930290910180546001600160a01b03168084526001820154948401949094526002810154918301919091526003015460ff16151560608201529150331461046b5760405162461bcd60e51b81526020600482015260156024820152742737ba103a34329037b93232b91031b932b0ba37b960591b6044820152606401610394565b8060600151156104c457336001600160a01b03166108fc826040015183602001516104969190611640565b6040518115909202916000818181858888f193505050501580156104be573d6000803e3d6000fd5b5061052c565b6040808201519051637921219560e11b81526001600160a01b0386169163f242432a916104f991309133918991600401611657565b600060405180830381600087803b15801561051357600080fd5b505af1158015610527573d6000803e3d6000fd5b505050505b336001600160a01b031683856001600160a01b03167fe2663e32629e072dfc4b656f1cf2b7d330a907ad64acd031df2536f1b960b0d88460600151604051610578911515815260200190565b60405180910390a46001600160a01b0384166000908152600160208181526040808420878552909152909120805490916105b19161168f565b815481106105c1576105c1611614565b600091825260208083206001600160a01b038816845260018252604080852088865290925292208054600490920290920191908490811061060457610604611614565b60009182526020808320845460049093020180546001600160a01b0319166001600160a01b03938416178155600180860154818301556002808701549083015560039586015495909101805460ff909616151560ff19909616959095179094559087168252918252604080822086835290925220805480610687576106876116a2565b60008281526020812060046000199093019283020180546001600160a01b0319168155600181018290556002810191909155600301805460ff19169055905550505050565b6106d4611203565b6001600160a01b0383166000908152600160209081526040808320858452909152902054811061073c5760405162461bcd60e51b8152602060048201526013602482015272092dcecc2d8d2c840dee4c8cae440d2dcc8caf606b1b6044820152606401610394565b6001600160a01b0383166000908152600160209081526040808320858452909152812080548390811061077157610771611614565b600091825260209182902060408051608081018252600490930290910180546001600160a01b0316835260018101549383019390935260028301549082015260039091015460ff161580156060830152909150610932576040818101519051627eeac760e11b8152336004820152602481018590526001600160a01b0386169062fdd58e90604401602060405180830381865afa158015610816573d6000803e3d6000fd5b505050506040513d601f19601f8201168201806040525081019061083a91906116b8565b10156108835760405162461bcd60e51b8152602060048201526018602482015277496e73756666696369656e74204e46542062616c616e636560401b6044820152606401610394565b80516040808301519051637921219560e11b81526001600160a01b0387169263f242432a926108b9923392918991600401611657565b600060405180830381600087803b1580156108d357600080fd5b505af11580156108e7573d6000803e3d6000fd5b505050604082015160208301513392506108fc9161090491611640565b6040518115909202916000818181858888f1935050505015801561092c573d6000803e3d6000fd5b50610a42565b806040015181602001516109469190611640565b34101561098c5760405162461bcd60e51b8152602060048201526014602482015273125b9cdd59999a58da595b9d081c185e5b595b9d60621b6044820152606401610394565b6040808201519051637921219560e11b81526001600160a01b0386169163f242432a916109c191309133918991600401611657565b600060405180830381600087803b1580156109db57600080fd5b505af11580156109ef573d6000803e3d6000fd5b5050505080600001516001600160a01b03166108fc82604001518360200151610a189190611640565b6040518115909202916000818181858888f19350505050158015610a40573d6000803e3d6000fd5b505b8060600151610a52578051610a54565b335b6001600160a01b031683856001600160a01b03167fe3334ea9757a7e6427e5d03d8a157bcce69adcaa13a1cfd1ada43d8ddef1f4d38460600151610a985733610a9b565b84515b60208087015160408089015181516001600160a01b0390951685529284019190915282015260600160405180910390a46001600160a01b038416600090815260016020818152604080842087855290915290912080549091610afc9161168f565b81548110610b0c57610b0c611614565b600091825260208083206001600160a01b0388168452600182526040808520888652909252922080546004909202909201919084908110610b4f57610b4f611614565b60009182526020808320845460049093020180546001600160a01b0319166001600160a01b03938416178155600180860154818301556002808701549083015560039586015495909101805460ff909616151560ff19909616959095179094559087168252918252604080822086835290925220805480610bd257610bd26116a2565b60008281526020812060046000199093019283020180546001600160a01b0319168155600181018290556002810191909155600301805460ff19169055905550610c1c6001600055565b505050565b60016020528260005260406000206020528160005260406000208181548110610c4957600080fd5b600091825260209091206004909102018054600182015460028301546003909301546001600160a01b039092169550935090915060ff1684565b6000600019815b6001600160a01b0385166000908152600160209081526040808320878452909152902054811015610dac576001600160a01b03851660009081526001602090815260408083208784529091529020805482908110610cea57610cea611614565b600091825260209091206003600490920201015460ff16158015610d5557506001600160a01b03851660009081526001602090815260408083208784529091529020805483919083908110610d4157610d41611614565b906000526020600020906004020160010154105b15610da4576001600160a01b03851660009081526001602090815260408083208784529091529020805482908110610d8f57610d8f611614565b90600052602060002090600402016001015491505b600101610c8a565b506000198114610dbc5780610dbf565b60005b949350505050565b60008311610e175760405162461bcd60e51b815260206004820152601f60248201527f5072696365206d7573742062652067726561746572207468616e207a65726f006044820152606401610394565b60008211610e675760405162461bcd60e51b815260206004820181905260248201527f416d6f756e74206d7573742062652067726561746572207468616e207a65726f6044820152606401610394565b8015610ed557610e778284611640565b3414610ed05760405162461bcd60e51b815260206004820152602260248201527f496e636f72726563742045544820616d6f756e7420666f7220627579206f726460448201526132b960f11b6064820152608401610394565b610ff2565b604051627eeac760e11b81523360048201526024810185905282906001600160a01b0387169062fdd58e90604401602060405180830381865afa158015610f20573d6000803e3d6000fd5b505050506040513d601f19601f82011682018060405250810190610f4491906116b8565b1015610f8d5760405162461bcd60e51b8152602060048201526018602482015277496e73756666696369656e74204e46542062616c616e636560401b6044820152606401610394565b604051637921219560e11b81526001600160a01b0386169063f242432a90610fbf903390309089908890600401611657565b600060405180830381600087803b158015610fd957600080fd5b505af1158015610fed573d6000803e3d6000fd5b505050505b6001600160a01b0385811660008181526001602081815260408084208a855282528084208151608081018352338082528185018c81528285018c81528b151560608086018281528754808c018955978c529a8990209551600490970290950180546001600160a01b03191696909c16959095178b559051968a01969096559451600289015594516003909701805460ff1916971515979097179096558051898152918201889052810194909452928792917f5ea2a66128e1d30efb1e6bbf81d42e6acab21a4ff7cf8dc66f14ab314854ce1a910160405180910390a45050505050565b600080805b6001600160a01b03851660009081526001602090815260408083208784529091529020548110156111fb576001600160a01b0385166000908152600160209081526040808320878452909152902080548290811061113a5761113a611614565b600091825260209091206003600490920201015460ff1680156111a457506001600160a01b0385166000908152600160209081526040808320878452909152902080548391908390811061119057611190611614565b906000526020600020906004020160010154115b156111f3576001600160a01b038516600090815260016020908152604080832087845290915290208054829081106111de576111de611614565b90600052602060002090600402016001015491505b6001016110da565b509392505050565b6002600054036112555760405162461bcd60e51b815260206004820152601f60248201527f5265656e7472616e637947756172643a207265656e7472616e742063616c6c006044820152606401610394565b6002600055565b60006020828403121561126e57600080fd5b81356001600160e01b03198116811461128657600080fd5b9392505050565b80356001600160a01b03811681146112a457600080fd5b919050565b600080604083850312156112bc57600080fd5b6112c58361128d565b946020939093013593505050565b602080825282518282018190526000919060409081850190868401855b8281101561133557815180516001600160a01b0316855286810151878601528581015186860152606090810151151590850152608090930192908501906001016112f0565b5091979650505050505050565b60008060006060848603121561135757600080fd5b6113608461128d565b95602085013595506040909401359392505050565b634e487b7160e01b600052604160045260246000fd5b604051601f8201601f1916810167ffffffffffffffff811182821017156113b4576113b4611375565b604052919050565b600082601f8301126113cd57600080fd5b8135602067ffffffffffffffff8211156113e9576113e9611375565b8160051b6113f882820161138b565b928352848101820192828101908785111561141257600080fd5b83870192505b8483101561143157823582529183019190830190611418565b979650505050505050565b600082601f83011261144d57600080fd5b813567ffffffffffffffff81111561146757611467611375565b61147a601f8201601f191660200161138b565b81815284602083860101111561148f57600080fd5b816020850160208301376000918101602001919091529392505050565b600080600080600060a086880312156114c457600080fd5b6114cd8661128d565b94506114db6020870161128d565b9350604086013567ffffffffffffffff808211156114f857600080fd5b61150489838a016113bc565b9450606088013591508082111561151a57600080fd5b61152689838a016113bc565b9350608088013591508082111561153c57600080fd5b506115498882890161143c565b9150509295509295909350565b600080600080600060a0868803121561156e57600080fd5b6115778661128d565b9450602086013593506040860135925060608601359150608086013580151581146115a157600080fd5b809150509295509295909350565b600080600080600060a086880312156115c757600080fd5b6115d08661128d565b94506115de6020870161128d565b93506040860135925060608601359150608086013567ffffffffffffffff81111561160857600080fd5b6115498882890161143c565b634e487b7160e01b600052603260045260246000fd5b634e487b7160e01b600052601160045260246000fd5b808202811582820484141761027c5761027c61162a565b6001600160a01b0394851681529290931660208301526040820152606081019190915260a06080820181905260009082015260c00190565b8181038181111561027c5761027c61162a565b634e487b7160e01b600052603160045260246000fd5b6000602082840312156116ca57600080fd5b505191905056fea2646970667358221220cbcb989c17dcd2b4e8b8b4b72954a9cd33fbf265bb040abe61080639de1db65a64736f6c63430008180033",
  "devdoc": {
    "kind": "dev",
    "methods": {
      "supportsInterface(bytes4)": {
        "details": "See {IERC165-supportsInterface}."
      }
    },
    "version": 1
  },
  "userdoc": {
    "kind": "user",
    "methods": {},
    "version": 1
  },
  "storageLayout": {
    "storage": [
      {
        "astId": 10,
        "contract": "contracts/NFTMarketplace.sol:NFTMarketplace",
        "label": "_status",
        "offset": 0,
        "slot": "0",
        "type": "t_uint256"
      },
      {
        "astId": 374,
        "contract": "contracts/NFTMarketplace.sol:NFTMarketplace",
        "label": "orders",
        "offset": 0,
        "slot": "1",
        "type": "t_mapping(t_address,t_mapping(t_uint256,t_array(t_struct(Order)366_storage)dyn_storage))"
      }
    ],
    "types": {
      "t_address": {
        "encoding": "inplace",
        "label": "address",
        "numberOfBytes": "20"
      },
      "t_array(t_struct(Order)366_storage)dyn_storage": {
        "base": "t_struct(Order)366_storage",
        "encoding": "dynamic_array",
        "label": "struct NFTMarketplace.Order[]",
        "numberOfBytes": "32"
      },
      "t_bool": {
        "encoding": "inplace",
        "label": "bool",
        "numberOfBytes": "1"
      },
      "t_mapping(t_address,t_mapping(t_uint256,t_array(t_struct(Order)366_storage)dyn_storage))": {
        "encoding": "mapping",
        "key": "t_address",
        "label": "mapping(address => mapping(uint256 => struct NFTMarketplace.Order[]))",
        "numberOfBytes": "32",
        "value": "t_mapping(t_uint256,t_array(t_struct(Order)366_storage)dyn_storage)"
      },
      "t_mapping(t_uint256,t_array(t_struct(Order)366_storage)dyn_storage)": {
        "encoding": "mapping",
        "key": "t_uint256",
        "label": "mapping(uint256 => struct NFTMarketplace.Order[])",
        "numberOfBytes": "32",
        "value": "t_array(t_struct(Order)366_storage)dyn_storage"
      },
      "t_struct(Order)366_storage": {
        "encoding": "inplace",
        "label": "struct NFTMarketplace.Order",
        "members": [
          {
            "astId": 359,
            "contract": "contracts/NFTMarketplace.sol:NFTMarketplace",
            "label": "user",
            "offset": 0,
            "slot": "0",
            "type": "t_address"
          },
          {
            "astId": 361,
            "contract": "contracts/NFTMarketplace.sol:NFTMarketplace",
            "label": "price",
            "offset": 0,
            "slot": "1",
            "type": "t_uint256"
          },
          {
            "astId": 363,
            "contract": "contracts/NFTMarketplace.sol:NFTMarketplace",
            "label": "amount",
            "offset": 0,
            "slot": "2",
            "type": "t_uint256"
          },
          {
            "astId": 365,
            "contract": "contracts/NFTMarketplace.sol:NFTMarketplace",
            "label": "isBuyOrder",
            "offset": 0,
            "slot": "3",
            "type": "t_bool"
          }
        ],
        "numberOfBytes": "128"
      },
      "t_uint256": {
        "encoding": "inplace",
        "label": "uint256",
        "numberOfBytes": "32"
      }
    }
  }
}