{
  "address": "0x2899dfFEe542c820f5f7ee32241AaeB700032411",
  "abi": [
    {
      "inputs": [],
      "stateMutability": "nonpayable",
      "type": "constructor"
    },
    {
      "anonymous": false,
      "inputs": [
        {
          "indexed": true,
          "internalType": "address",
          "name": "account",
          "type": "address"
        },
        {
          "indexed": true,
          "internalType": "address",
          "name": "operator",
          "type": "address"
        },
        {
          "indexed": false,
          "internalType": "bool",
          "name": "approved",
          "type": "bool"
        }
      ],
      "name": "ApprovalForAll",
      "type": "event"
    },
    {
      "anonymous": false,
      "inputs": [
        {
          "indexed": true,
          "internalType": "address",
          "name": "previousOwner",
          "type": "address"
        },
        {
          "indexed": true,
          "internalType": "address",
          "name": "newOwner",
          "type": "address"
        }
      ],
      "name": "OwnershipTransferred",
      "type": "event"
    },
    {
      "anonymous": false,
      "inputs": [
        {
          "indexed": true,
          "internalType": "address",
          "name": "operator",
          "type": "address"
        },
        {
          "indexed": true,
          "internalType": "address",
          "name": "from",
          "type": "address"
        },
        {
          "indexed": true,
          "internalType": "address",
          "name": "to",
          "type": "address"
        },
        {
          "indexed": false,
          "internalType": "uint256[]",
          "name": "ids",
          "type": "uint256[]"
        },
        {
          "indexed": false,
          "internalType": "uint256[]",
          "name": "values",
          "type": "uint256[]"
        }
      ],
      "name": "TransferBatch",
      "type": "event"
    },
    {
      "anonymous": false,
      "inputs": [
        {
          "indexed": true,
          "internalType": "address",
          "name": "operator",
          "type": "address"
        },
        {
          "indexed": true,
          "internalType": "address",
          "name": "from",
          "type": "address"
        },
        {
          "indexed": true,
          "internalType": "address",
          "name": "to",
          "type": "address"
        },
        {
          "indexed": false,
          "internalType": "uint256",
          "name": "id",
          "type": "uint256"
        },
        {
          "indexed": false,
          "internalType": "uint256",
          "name": "value",
          "type": "uint256"
        }
      ],
      "name": "TransferSingle",
      "type": "event"
    },
    {
      "anonymous": false,
      "inputs": [
        {
          "indexed": false,
          "internalType": "string",
          "name": "value",
          "type": "string"
        },
        {
          "indexed": true,
          "internalType": "uint256",
          "name": "id",
          "type": "uint256"
        }
      ],
      "name": "URI",
      "type": "event"
    },
    {
      "inputs": [],
      "name": "MAX_SUPPLY",
      "outputs": [
        {
          "internalType": "uint256",
          "name": "",
          "type": "uint256"
        }
      ],
      "stateMutability": "view",
      "type": "function"
    },
    {
      "inputs": [],
      "name": "MY_NFT",
      "outputs": [
        {
          "internalType": "uint256",
          "name": "",
          "type": "uint256"
        }
      ],
      "stateMutability": "view",
      "type": "function"
    },
    {
      "inputs": [
        {
          "internalType": "address",
          "name": "account",
          "type": "address"
        },
        {
          "internalType": "uint256",
          "name": "id",
          "type": "uint256"
        }
      ],
      "name": "balanceOf",
      "outputs": [
        {
          "internalType": "uint256",
          "name": "",
          "type": "uint256"
        }
      ],
      "stateMutability": "view",
      "type": "function"
    },
    {
      "inputs": [
        {
          "internalType": "address[]",
          "name": "accounts",
          "type": "address[]"
        },
        {
          "internalType": "uint256[]",
          "name": "ids",
          "type": "uint256[]"
        }
      ],
      "name": "balanceOfBatch",
      "outputs": [
        {
          "internalType": "uint256[]",
          "name": "",
          "type": "uint256[]"
        }
      ],
      "stateMutability": "view",
      "type": "function"
    },
    {
      "inputs": [
        {
          "internalType": "address",
          "name": "account",
          "type": "address"
        },
        {
          "internalType": "address",
          "name": "operator",
          "type": "address"
        }
      ],
      "name": "isApprovedForAll",
      "outputs": [
        {
          "internalType": "bool",
          "name": "",
          "type": "bool"
        }
      ],
      "stateMutability": "view",
      "type": "function"
    },
    {
      "inputs": [
        {
          "internalType": "address",
          "name": "account",
          "type": "address"
        },
        {
          "internalType": "uint256",
          "name": "amount",
          "type": "uint256"
        },
        {
          "internalType": "bytes",
          "name": "data",
          "type": "bytes"
        }
      ],
      "name": "mint",
      "outputs": [],
      "stateMutability": "nonpayable",
      "type": "function"
    },
    {
      "inputs": [],
      "name": "owner",
      "outputs": [
        {
          "internalType": "address",
          "name": "",
          "type": "address"
        }
      ],
      "stateMutability": "view",
      "type": "function"
    },
    {
      "inputs": [],
      "name": "renounceOwnership",
      "outputs": [],
      "stateMutability": "nonpayable",
      "type": "function"
    },
    {
      "inputs": [
        {
          "internalType": "address",
          "name": "from",
          "type": "address"
        },
        {
          "internalType": "address",
          "name": "to",
          "type": "address"
        },
        {
          "internalType": "uint256[]",
          "name": "ids",
          "type": "uint256[]"
        },
        {
          "internalType": "uint256[]",
          "name": "amounts",
          "type": "uint256[]"
        },
        {
          "internalType": "bytes",
          "name": "data",
          "type": "bytes"
        }
      ],
      "name": "safeBatchTransferFrom",
      "outputs": [],
      "stateMutability": "nonpayable",
      "type": "function"
    },
    {
      "inputs": [
        {
          "internalType": "address",
          "name": "from",
          "type": "address"
        },
        {
          "internalType": "address",
          "name": "to",
          "type": "address"
        },
        {
          "internalType": "uint256",
          "name": "id",
          "type": "uint256"
        },
        {
          "internalType": "uint256",
          "name": "amount",
          "type": "uint256"
        },
        {
          "internalType": "bytes",
          "name": "data",
          "type": "bytes"
        }
      ],
      "name": "safeTransferFrom",
      "outputs": [],
      "stateMutability": "nonpayable",
      "type": "function"
    },
    {
      "inputs": [
        {
          "internalType": "address",
          "name": "operator",
          "type": "address"
        },
        {
          "internalType": "bool",
          "name": "approved",
          "type": "bool"
        }
      ],
      "name": "setApprovalForAll",
      "outputs": [],
      "stateMutability": "nonpayable",
      "type": "function"
    },
    {
      "inputs": [
        {
          "internalType": "string",
          "name": "newuri",
          "type": "string"
        }
      ],
      "name": "setURI",
      "outputs": [],
      "stateMutability": "nonpayable",
      "type": "function"
    },
    {
      "inputs": [
        {
          "internalType": "bytes4",
          "name": "interfaceId",
          "type": "bytes4"
        }
      ],
      "name": "supportsInterface",
      "outputs": [
        {
          "internalType": "bool",
          "name": "",
          "type": "bool"
        }
      ],
      "stateMutability": "view",
      "type": "function"
    },
    {
      "inputs": [
        {
          "internalType": "uint256",
          "name": "id",
          "type": "uint256"
        }
      ],
      "name": "totalSupply",
      "outputs": [
        {
          "internalType": "uint256",
          "name": "",
          "type": "uint256"
        }
      ],
      "stateMutability": "view",
      "type": "function"
    },
    {
      "inputs": [
        {
          "internalType": "address",
          "name": "newOwner",
          "type": "address"
        }
      ],
      "name": "transferOwnership",
      "outputs": [],
      "stateMutability": "nonpayable",
      "type": "function"
    },
    {
      "inputs": [
        {
          "internalType": "uint256",
          "name": "",
          "type": "uint256"
        }
      ],
      "name": "uri",
      "outputs": [
        {
          "internalType": "string",
          "name": "",
          "type": "string"
        }
      ],
      "stateMutability": "view",
      "type": "function"
    }
  ],
  "transactionHash": "0x96fecd93526dad22ba76301a301508afbdd5f763b7dd66cf44b54ffdd65dfb52",
  "args": [],
  "numDeployments": 3,
  "solcInputHash": "b1ab46f22b7b13b480807cada713bd10",
  "bytecode": "0x60806040523480156200001157600080fd5b50604051806060016040528060268152602001620020696026913962000037816200006f565b50620000433362000081565b62000069336001610bb860405180602001604052806000815250620000d360201b60201c565b62000762565b60026200007d8282620004a6565b5050565b600380546001600160a01b038381166001600160a01b0319831681179093556040519116919082907f8be0079c531659141344cd1fd0a4f28419497f9722a3daafe3b4186f6b6457e090600090a35050565b6001600160a01b038416620001395760405162461bcd60e51b815260206004820152602160248201527f455243313135353a206d696e7420746f20746865207a65726f206164647265736044820152607360f81b60648201526084015b60405180910390fd5b3360006200014785620001f5565b905060006200015685620001f5565b90506000868152602081815260408083206001600160a01b038b168452909152812080548792906200018a90849062000572565b909155505060408051878152602081018790526001600160a01b03808a1692600092918716917fc3d58168c5ae7397731d063d5bbf3d657854427343f4c083240f7aacaa2d0f62910160405180910390a4620001ec836000898989896200024b565b50505050505050565b604080516001808252818301909252606091600091906020808301908036833701905050905082816000815181106200023257620002326200059a565b602090810291909101015292915050565b505050505050565b6001600160a01b0384163b15620002435760405163f23a6e6160e01b81526001600160a01b0385169063f23a6e6190620002929089908990889088908890600401620005f8565b6020604051808303816000875af1925050508015620002d0575060408051601f3d908101601f19168201909252620002cd918101906200063f565b60015b6200039057620002df62000672565b806308c379a0036200031f5750620002f6620006be565b8062000303575062000321565b8060405162461bcd60e51b81526004016200013091906200074d565b505b60405162461bcd60e51b815260206004820152603460248201527f455243313135353a207472616e7366657220746f206e6f6e2d4552433131353560448201527f526563656976657220696d706c656d656e746572000000000000000000000000606482015260840162000130565b6001600160e01b0319811663f23a6e6160e01b14620001ec5760405162461bcd60e51b815260206004820152602860248201527f455243313135353a204552433131353552656365697665722072656a656374656044820152676420746f6b656e7360c01b606482015260840162000130565b634e487b7160e01b600052604160045260246000fd5b600181811c908216806200042e57607f821691505b6020821081036200044f57634e487b7160e01b600052602260045260246000fd5b50919050565b601f821115620004a1576000816000526020600020601f850160051c81016020861015620004805750805b601f850160051c820191505b8181101562000243578281556001016200048c565b505050565b81516001600160401b03811115620004c257620004c262000403565b620004da81620004d3845462000419565b8462000455565b602080601f831160018114620005125760008415620004f95750858301515b600019600386901b1c1916600185901b17855562000243565b600085815260208120601f198616915b82811015620005435788860151825594840194600190910190840162000522565b5085821015620005625787850151600019600388901b60f8161c191681555b5050505050600190811b01905550565b808201808211156200059457634e487b7160e01b600052601160045260246000fd5b92915050565b634e487b7160e01b600052603260045260246000fd5b6000815180845260005b81811015620005d857602081850181015186830182015201620005ba565b506000602082860101526020601f19601f83011685010191505092915050565b6001600160a01b03868116825285166020820152604081018490526060810183905260a0608082018190526000906200063490830184620005b0565b979650505050505050565b6000602082840312156200065257600080fd5b81516001600160e01b0319811681146200066b57600080fd5b9392505050565b600060033d11156200068c5760046000803e5060005160e01c5b90565b601f8201601f191681016001600160401b0381118282101715620006b757620006b762000403565b6040525050565b600060443d1015620006cd5790565b6040516003193d81016004833e81513d6001600160401b038083116024840183101715620006fd57505050505090565b8285019150815181811115620007165750505050505090565b843d8701016020828501011115620007315750505050505090565b62000742602082860101876200068f565b509095945050505050565b6020815260006200066b6020830184620005b0565b6118f780620007726000396000f3fe608060405234801561001057600080fd5b50600436106100ff5760003560e01c8063715018a611610097578063bd85b03911610066578063bd85b0391461020f578063e985e9c514610222578063f242432a1461025e578063f2fde38b1461027157600080fd5b8063715018a6146101c65780638da5cb5b146101ce57806394d008ef146101e9578063a22cb465146101fc57600080fd5b80632eb2c2d6116100d35780632eb2c2d61461018257806332cb6b0c146101955780634e1273f41461019e5780636ced38fa146101be57600080fd5b8062fdd58e1461010457806301ffc9a71461012a57806302fe53051461014d5780630e89341c14610162575b600080fd5b610117610112366004610f03565b610284565b6040519081526020015b60405180910390f35b61013d610138366004610f43565b61031d565b6040519015158152602001610121565b61016061015b366004611008565b61036d565b005b610175610170366004611059565b610381565b60405161012191906110b8565b610160610190366004611185565b610415565b610117610bb881565b6101b16101ac36600461122f565b610461565b6040516101219190611336565b610117600181565b610160610583565b6003546040516001600160a01b039091168152602001610121565b6101606101f7366004611349565b610597565b61016061020a3660046113a0565b610604565b61011761021d366004611059565b610613565b61013d6102303660046113dc565b6001600160a01b03918216600090815260016020908152604080832093909416825291909152205460ff1690565b61016061026c36600461140f565b61061f565b61016061027f366004611474565b610664565b60006001600160a01b0383166102f45760405162461bcd60e51b815260206004820152602a60248201527f455243313135353a2061646472657373207a65726f206973206e6f742061207660448201526930b634b21037bbb732b960b11b60648201526084015b60405180910390fd5b506000818152602081815260408083206001600160a01b03861684529091529020545b92915050565b60006001600160e01b03198216636cdb3d1360e11b148061034e57506001600160e01b031982166303a24d0760e21b145b8061031757506301ffc9a760e01b6001600160e01b0319831614610317565b6103756106da565b61037e81610734565b50565b6060600280546103909061148f565b80601f01602080910402602001604051908101604052809291908181526020018280546103bc9061148f565b80156104095780601f106103de57610100808354040283529160200191610409565b820191906000526020600020905b8154815290600101906020018083116103ec57829003601f168201915b50505050509050919050565b6001600160a01b03851633148061043157506104318533610230565b61044d5760405162461bcd60e51b81526004016102eb906114c9565b61045a8585858585610740565b5050505050565b606081518351146104c65760405162461bcd60e51b815260206004820152602960248201527f455243313135353a206163636f756e747320616e6420696473206c656e677468604482015268040dad2e6dac2e8c6d60bb1b60648201526084016102eb565b6000835167ffffffffffffffff8111156104e2576104e2610f67565b60405190808252806020026020018201604052801561050b578160200160208202803683370190505b50905060005b845181101561057b5761055685828151811061052f5761052f611517565b602002602001015185838151811061054957610549611517565b6020026020010151610284565b82828151811061056857610568611517565b6020908102919091010152600101610511565b509392505050565b61058b6106da565b6105956000610916565b565b610bb8826105a56001610613565b6105af919061152d565b11156105f25760405162461bcd60e51b815260206004820152601260248201527145786365656473206d617820737570706c7960701b60448201526064016102eb565b6105ff8360018484610968565b505050565b61060f338383610a7c565b5050565b60006103173083610284565b6001600160a01b03851633148061063b575061063b8533610230565b6106575760405162461bcd60e51b81526004016102eb906114c9565b61045a8585858585610b5c565b61066c6106da565b6001600160a01b0381166106d15760405162461bcd60e51b815260206004820152602660248201527f4f776e61626c653a206e6577206f776e657220697320746865207a65726f206160448201526564647265737360d01b60648201526084016102eb565b61037e81610916565b6003546001600160a01b031633146105955760405162461bcd60e51b815260206004820181905260248201527f4f776e61626c653a2063616c6c6572206973206e6f7420746865206f776e657260448201526064016102eb565b600261060f8282611596565b81518351146107a25760405162461bcd60e51b815260206004820152602860248201527f455243313135353a2069647320616e6420616d6f756e7473206c656e677468206044820152670dad2e6dac2e8c6d60c31b60648201526084016102eb565b6001600160a01b0384166107c85760405162461bcd60e51b81526004016102eb90611656565b3360005b84518110156108a85760008582815181106107e9576107e9611517565b60200260200101519050600085838151811061080757610807611517565b602090810291909101810151600084815280835260408082206001600160a01b038e1683529093529190912054909150818110156108575760405162461bcd60e51b81526004016102eb9061169b565b6000838152602081815260408083206001600160a01b038e8116855292528083208585039055908b1682528120805484929061089490849061152d565b9091555050600190930192506107cc915050565b50846001600160a01b0316866001600160a01b0316826001600160a01b03167f4a39dc06d4c0dbc64b70af90fd698a233a518aa5d07e595d983b8c0526c8f7fb87876040516108f89291906116e5565b60405180910390a461090e818787878787610c86565b505050505050565b600380546001600160a01b038381166001600160a01b0319831681179093556040519116919082907f8be0079c531659141344cd1fd0a4f28419497f9722a3daafe3b4186f6b6457e090600090a35050565b6001600160a01b0384166109c85760405162461bcd60e51b815260206004820152602160248201527f455243313135353a206d696e7420746f20746865207a65726f206164647265736044820152607360f81b60648201526084016102eb565b3360006109d485610de1565b905060006109e185610de1565b90506000868152602081815260408083206001600160a01b038b16845290915281208054879290610a1390849061152d565b909155505060408051878152602081018790526001600160a01b03808a1692600092918716917fc3d58168c5ae7397731d063d5bbf3d657854427343f4c083240f7aacaa2d0f62910160405180910390a4610a7383600089898989610e2c565b50505050505050565b816001600160a01b0316836001600160a01b031603610aef5760405162461bcd60e51b815260206004820152602960248201527f455243313135353a2073657474696e6720617070726f76616c20737461747573604482015268103337b91039b2b63360b91b60648201526084016102eb565b6001600160a01b03838116600081815260016020908152604080832094871680845294825291829020805460ff191686151590811790915591519182527f17307eab39ab6107e8899845ad3d59bd9653f200f220920489ca2b5937696c31910160405180910390a3505050565b6001600160a01b038416610b825760405162461bcd60e51b81526004016102eb90611656565b336000610b8e85610de1565b90506000610b9b85610de1565b90506000868152602081815260408083206001600160a01b038c16845290915290205485811015610bde5760405162461bcd60e51b81526004016102eb9061169b565b6000878152602081815260408083206001600160a01b038d8116855292528083208985039055908a16825281208054889290610c1b90849061152d565b909155505060408051888152602081018890526001600160a01b03808b16928c821692918816917fc3d58168c5ae7397731d063d5bbf3d657854427343f4c083240f7aacaa2d0f62910160405180910390a4610c7b848a8a8a8a8a610e2c565b505050505050505050565b6001600160a01b0384163b1561090e5760405163bc197c8160e01b81526001600160a01b0385169063bc197c8190610cca9089908990889088908890600401611713565b6020604051808303816000875af1925050508015610d05575060408051601f3d908101601f19168201909252610d0291810190611771565b60015b610db157610d1161178e565b806308c379a003610d4a5750610d256117aa565b80610d305750610d4c565b8060405162461bcd60e51b81526004016102eb91906110b8565b505b60405162461bcd60e51b815260206004820152603460248201527f455243313135353a207472616e7366657220746f206e6f6e2d455243313135356044820152732932b1b2b4bb32b91034b6b83632b6b2b73a32b960611b60648201526084016102eb565b6001600160e01b0319811663bc197c8160e01b14610a735760405162461bcd60e51b81526004016102eb90611834565b60408051600180825281830190925260609160009190602080830190803683370190505090508281600081518110610e1b57610e1b611517565b602090810291909101015292915050565b6001600160a01b0384163b1561090e5760405163f23a6e6160e01b81526001600160a01b0385169063f23a6e6190610e70908990899088908890889060040161187c565b6020604051808303816000875af1925050508015610eab575060408051601f3d908101601f19168201909252610ea891810190611771565b60015b610eb757610d1161178e565b6001600160e01b0319811663f23a6e6160e01b14610a735760405162461bcd60e51b81526004016102eb90611834565b80356001600160a01b0381168114610efe57600080fd5b919050565b60008060408385031215610f1657600080fd5b610f1f83610ee7565b946020939093013593505050565b6001600160e01b03198116811461037e57600080fd5b600060208284031215610f5557600080fd5b8135610f6081610f2d565b9392505050565b634e487b7160e01b600052604160045260246000fd5b601f8201601f1916810167ffffffffffffffff81118282101715610fa357610fa3610f67565b6040525050565b600067ffffffffffffffff831115610fc457610fc4610f67565b604051610fdb601f8501601f191660200182610f7d565b809150838152848484011115610ff057600080fd5b83836020830137600060208583010152509392505050565b60006020828403121561101a57600080fd5b813567ffffffffffffffff81111561103157600080fd5b8201601f8101841361104257600080fd5b61105184823560208401610faa565b949350505050565b60006020828403121561106b57600080fd5b5035919050565b6000815180845260005b818110156110985760208185018101518683018201520161107c565b506000602082860101526020601f19601f83011685010191505092915050565b602081526000610f606020830184611072565b600067ffffffffffffffff8211156110e5576110e5610f67565b5060051b60200190565b600082601f83011261110057600080fd5b8135602061110d826110cb565b60405161111a8282610f7d565b80915083815260208101915060208460051b87010193508684111561113e57600080fd5b602086015b8481101561115a5780358352918301918301611143565b509695505050505050565b600082601f83011261117657600080fd5b610f6083833560208501610faa565b600080600080600060a0868803121561119d57600080fd5b6111a686610ee7565b94506111b460208701610ee7565b9350604086013567ffffffffffffffff808211156111d157600080fd5b6111dd89838a016110ef565b945060608801359150808211156111f357600080fd5b6111ff89838a016110ef565b9350608088013591508082111561121557600080fd5b5061122288828901611165565b9150509295509295909350565b6000806040838503121561124257600080fd5b823567ffffffffffffffff8082111561125a57600080fd5b818501915085601f83011261126e57600080fd5b8135602061127b826110cb565b6040516112888282610f7d565b83815260059390931b85018201928281019150898411156112a857600080fd5b948201945b838610156112cd576112be86610ee7565b825294820194908201906112ad565b965050860135925050808211156112e357600080fd5b506112f0858286016110ef565b9150509250929050565b60008151808452602080850194506020840160005b8381101561132b5781518752958201959082019060010161130f565b509495945050505050565b602081526000610f6060208301846112fa565b60008060006060848603121561135e57600080fd5b61136784610ee7565b925060208401359150604084013567ffffffffffffffff81111561138a57600080fd5b61139686828701611165565b9150509250925092565b600080604083850312156113b357600080fd5b6113bc83610ee7565b9150602083013580151581146113d157600080fd5b809150509250929050565b600080604083850312156113ef57600080fd5b6113f883610ee7565b915061140660208401610ee7565b90509250929050565b600080600080600060a0868803121561142757600080fd5b61143086610ee7565b945061143e60208701610ee7565b93506040860135925060608601359150608086013567ffffffffffffffff81111561146857600080fd5b61122288828901611165565b60006020828403121561148657600080fd5b610f6082610ee7565b600181811c908216806114a357607f821691505b6020821081036114c357634e487b7160e01b600052602260045260246000fd5b50919050565b6020808252602e908201527f455243313135353a2063616c6c6572206973206e6f7420746f6b656e206f776e60408201526d195c881bdc88185c1c1c9bdd995960921b606082015260800190565b634e487b7160e01b600052603260045260246000fd5b8082018082111561031757634e487b7160e01b600052601160045260246000fd5b601f8211156105ff576000816000526020600020601f850160051c810160208610156115775750805b601f850160051c820191505b8181101561090e57828155600101611583565b815167ffffffffffffffff8111156115b0576115b0610f67565b6115c4816115be845461148f565b8461154e565b602080601f8311600181146115f957600084156115e15750858301515b600019600386901b1c1916600185901b17855561090e565b600085815260208120601f198616915b8281101561162857888601518255948401946001909101908401611609565b50858210156116465787850151600019600388901b60f8161c191681555b5050505050600190811b01905550565b60208082526025908201527f455243313135353a207472616e7366657220746f20746865207a65726f206164604082015264647265737360d81b606082015260800190565b6020808252602a908201527f455243313135353a20696e73756666696369656e742062616c616e636520666f60408201526939103a3930b739b332b960b11b606082015260800190565b6040815260006116f860408301856112fa565b828103602084015261170a81856112fa565b95945050505050565b6001600160a01b0386811682528516602082015260a06040820181905260009061173f908301866112fa565b828103606084015261175181866112fa565b905082810360808401526117658185611072565b98975050505050505050565b60006020828403121561178357600080fd5b8151610f6081610f2d565b600060033d11156117a75760046000803e5060005160e01c5b90565b600060443d10156117b85790565b6040516003193d81016004833e81513d67ffffffffffffffff81602484011181841117156117e857505050505090565b82850191508151818111156118005750505050505090565b843d870101602082850101111561181a5750505050505090565b61182960208286010187610f7d565b509095945050505050565b60208082526028908201527f455243313135353a204552433131353552656365697665722072656a656374656040820152676420746f6b656e7360c01b606082015260800190565b6001600160a01b03868116825285166020820152604081018490526060810183905260a0608082018190526000906118b690830184611072565b97965050505050505056fea26469706673582212203d6bed10f0b59ea47f468a1c1ca4665e53439232c1946e064aab89d9b8494a2664736f6c6343000818003368747470733a2f2f692e6962622e636f2f57486b535447482f547261636b2d4361722e6a7067",
  "devdoc": {
    "events": {
      "ApprovalForAll(address,address,bool)": {
        "details": "Emitted when `account` grants or revokes permission to `operator` to transfer their tokens, according to `approved`."
      },
      "TransferBatch(address,address,address,uint256[],uint256[])": {
        "details": "Equivalent to multiple {TransferSingle} events, where `operator`, `from` and `to` are the same for all transfers."
      },
      "TransferSingle(address,address,address,uint256,uint256)": {
        "details": "Emitted when `value` tokens of token type `id` are transferred from `from` to `to` by `operator`."
      },
      "URI(string,uint256)": {
        "details": "Emitted when the URI for token type `id` changes to `value`, if it is a non-programmatic URI. If an {URI} event was emitted for `id`, the standard https://eips.ethereum.org/EIPS/eip-1155#metadata-extensions[guarantees] that `value` will equal the value returned by {IERC1155MetadataURI-uri}."
      }
    },
    "kind": "dev",
    "methods": {
      "balanceOf(address,uint256)": {
        "details": "See {IERC1155-balanceOf}. Requirements: - `account` cannot be the zero address."
      },
      "balanceOfBatch(address[],uint256[])": {
        "details": "See {IERC1155-balanceOfBatch}. Requirements: - `accounts` and `ids` must have the same length."
      },
      "isApprovedForAll(address,address)": {
        "details": "See {IERC1155-isApprovedForAll}."
      },
      "owner()": {
        "details": "Returns the address of the current owner."
      },
      "renounceOwnership()": {
        "details": "Leaves the contract without owner. It will not be possible to call `onlyOwner` functions. Can only be called by the current owner. NOTE: Renouncing ownership will leave the contract without an owner, thereby disabling any functionality that is only available to the owner."
      },
      "safeBatchTransferFrom(address,address,uint256[],uint256[],bytes)": {
        "details": "See {IERC1155-safeBatchTransferFrom}."
      },
      "safeTransferFrom(address,address,uint256,uint256,bytes)": {
        "details": "See {IERC1155-safeTransferFrom}."
      },
      "setApprovalForAll(address,bool)": {
        "details": "See {IERC1155-setApprovalForAll}."
      },
      "supportsInterface(bytes4)": {
        "details": "See {IERC165-supportsInterface}."
      },
      "transferOwnership(address)": {
        "details": "Transfers ownership of the contract to a new account (`newOwner`). Can only be called by the current owner."
      },
      "uri(uint256)": {
        "details": "See {IERC1155MetadataURI-uri}. This implementation returns the same URI for *all* token types. It relies on the token type ID substitution mechanism https://eips.ethereum.org/EIPS/eip-1155#metadata[defined in the EIP]. Clients calling this function must replace the `\\{id\\}` substring with the actual token type ID."
      }
    },
    "version": 1
  },
  "userdoc": {
    "kind": "user",
    "methods": {},
    "version": 1
  },
  "storageLayout": {
    "storage": [
      {
        "astId": 138,
        "contract": "contracts/TrackCarCollectible.sol:TrackCarCollectible",
        "label": "_balances",
        "offset": 0,
        "slot": "0",
        "type": "t_mapping(t_uint256,t_mapping(t_address,t_uint256))"
      },
      {
        "astId": 144,
        "contract": "contracts/TrackCarCollectible.sol:TrackCarCollectible",
        "label": "_operatorApprovals",
        "offset": 0,
        "slot": "1",
        "type": "t_mapping(t_address,t_mapping(t_address,t_bool))"
      },
      {
        "astId": 146,
        "contract": "contracts/TrackCarCollectible.sol:TrackCarCollectible",
        "label": "_uri",
        "offset": 0,
        "slot": "2",
        "type": "t_string_storage"
      },
      {
        "astId": 7,
        "contract": "contracts/TrackCarCollectible.sol:TrackCarCollectible",
        "label": "_owner",
        "offset": 0,
        "slot": "3",
        "type": "t_address"
      }
    ],
    "types": {
      "t_address": {
        "encoding": "inplace",
        "label": "address",
        "numberOfBytes": "20"
      },
      "t_bool": {
        "encoding": "inplace",
        "label": "bool",
        "numberOfBytes": "1"
      },
      "t_mapping(t_address,t_bool)": {
        "encoding": "mapping",
        "key": "t_address",
        "label": "mapping(address => bool)",
        "numberOfBytes": "32",
        "value": "t_bool"
      },
      "t_mapping(t_address,t_mapping(t_address,t_bool))": {
        "encoding": "mapping",
        "key": "t_address",
        "label": "mapping(address => mapping(address => bool))",
        "numberOfBytes": "32",
        "value": "t_mapping(t_address,t_bool)"
      },
      "t_mapping(t_address,t_uint256)": {
        "encoding": "mapping",
        "key": "t_address",
        "label": "mapping(address => uint256)",
        "numberOfBytes": "32",
        "value": "t_uint256"
      },
      "t_mapping(t_uint256,t_mapping(t_address,t_uint256))": {
        "encoding": "mapping",
        "key": "t_uint256",
        "label": "mapping(uint256 => mapping(address => uint256))",
        "numberOfBytes": "32",
        "value": "t_mapping(t_address,t_uint256)"
      },
      "t_string_storage": {
        "encoding": "bytes",
        "label": "string",
        "numberOfBytes": "32"
      },
      "t_uint256": {
        "encoding": "inplace",
        "label": "uint256",
        "numberOfBytes": "32"
      }
    }
  }
}