{
  "address": "0x59Cb47B6f825444321F9a6671d991d59fFC23656",
  "abi": [
    {
      "inputs": [
        {
          "internalType": "address",
          "name": "signerAddress",
          "type": "address"
        }
      ],
      "stateMutability": "nonpayable",
      "type": "constructor"
    },
    {
      "anonymous": false,
      "inputs": [
        {
          "indexed": true,
          "internalType": "address",
          "name": "account",
          "type": "address"
        },
        {
          "indexed": true,
          "internalType": "address",
          "name": "operator",
          "type": "address"
        },
        {
          "indexed": false,
          "internalType": "bool",
          "name": "approved",
          "type": "bool"
        }
      ],
      "name": "ApprovalForAll",
      "type": "event"
    },
    {
      "anonymous": false,
      "inputs": [
        {
          "indexed": false,
          "internalType": "uint256",
          "name": "tokenId",
          "type": "uint256"
        },
        {
          "indexed": false,
          "internalType": "string",
          "name": "uri",
          "type": "string"
        },
        {
          "indexed": false,
          "internalType": "uint256",
          "name": "maxSupply",
          "type": "uint256"
        },
        {
          "indexed": false,
          "internalType": "enum WinMeCollectible.Rarity",
          "name": "rarity",
          "type": "uint8"
        }
      ],
      "name": "NFTAdded",
      "type": "event"
    },
    {
      "anonymous": false,
      "inputs": [
        {
          "indexed": true,
          "internalType": "address",
          "name": "user",
          "type": "address"
        },
        {
          "indexed": false,
          "internalType": "uint256",
          "name": "tokenId",
          "type": "uint256"
        },
        {
          "indexed": false,
          "internalType": "uint256",
          "name": "mintCount",
          "type": "uint256"
        }
      ],
      "name": "NFTClaimed",
      "type": "event"
    },
    {
      "anonymous": false,
      "inputs": [
        {
          "indexed": true,
          "internalType": "address",
          "name": "previousOwner",
          "type": "address"
        },
        {
          "indexed": true,
          "internalType": "address",
          "name": "newOwner",
          "type": "address"
        }
      ],
      "name": "OwnershipTransferred",
      "type": "event"
    },
    {
      "anonymous": false,
      "inputs": [
        {
          "indexed": true,
          "internalType": "address",
          "name": "operator",
          "type": "address"
        },
        {
          "indexed": true,
          "internalType": "address",
          "name": "from",
          "type": "address"
        },
        {
          "indexed": true,
          "internalType": "address",
          "name": "to",
          "type": "address"
        },
        {
          "indexed": false,
          "internalType": "uint256[]",
          "name": "ids",
          "type": "uint256[]"
        },
        {
          "indexed": false,
          "internalType": "uint256[]",
          "name": "values",
          "type": "uint256[]"
        }
      ],
      "name": "TransferBatch",
      "type": "event"
    },
    {
      "anonymous": false,
      "inputs": [
        {
          "indexed": true,
          "internalType": "address",
          "name": "operator",
          "type": "address"
        },
        {
          "indexed": true,
          "internalType": "address",
          "name": "from",
          "type": "address"
        },
        {
          "indexed": true,
          "internalType": "address",
          "name": "to",
          "type": "address"
        },
        {
          "indexed": false,
          "internalType": "uint256",
          "name": "id",
          "type": "uint256"
        },
        {
          "indexed": false,
          "internalType": "uint256",
          "name": "value",
          "type": "uint256"
        }
      ],
      "name": "TransferSingle",
      "type": "event"
    },
    {
      "anonymous": false,
      "inputs": [
        {
          "indexed": false,
          "internalType": "string",
          "name": "value",
          "type": "string"
        },
        {
          "indexed": true,
          "internalType": "uint256",
          "name": "id",
          "type": "uint256"
        }
      ],
      "name": "URI",
      "type": "event"
    },
    {
      "inputs": [
        {
          "internalType": "string",
          "name": "_uri",
          "type": "string"
        },
        {
          "internalType": "enum WinMeCollectible.Rarity",
          "name": "_rarity",
          "type": "uint8"
        }
      ],
      "name": "addNewNFT",
      "outputs": [],
      "stateMutability": "nonpayable",
      "type": "function"
    },
    {
      "inputs": [
        {
          "internalType": "address",
          "name": "account",
          "type": "address"
        },
        {
          "internalType": "uint256",
          "name": "id",
          "type": "uint256"
        }
      ],
      "name": "balanceOf",
      "outputs": [
        {
          "internalType": "uint256",
          "name": "",
          "type": "uint256"
        }
      ],
      "stateMutability": "view",
      "type": "function"
    },
    {
      "inputs": [
        {
          "internalType": "address[]",
          "name": "accounts",
          "type": "address[]"
        },
        {
          "internalType": "uint256[]",
          "name": "ids",
          "type": "uint256[]"
        }
      ],
      "name": "balanceOfBatch",
      "outputs": [
        {
          "internalType": "uint256[]",
          "name": "",
          "type": "uint256[]"
        }
      ],
      "stateMutability": "view",
      "type": "function"
    },
    {
      "inputs": [
        {
          "internalType": "uint256",
          "name": "tokenId",
          "type": "uint256"
        },
        {
          "internalType": "bytes",
          "name": "signature",
          "type": "bytes"
        }
      ],
      "name": "claimNFT",
      "outputs": [],
      "stateMutability": "nonpayable",
      "type": "function"
    },
    {
      "inputs": [
        {
          "internalType": "uint256",
          "name": "tokenId",
          "type": "uint256"
        }
      ],
      "name": "getMintCount",
      "outputs": [
        {
          "internalType": "uint256",
          "name": "",
          "type": "uint256"
        }
      ],
      "stateMutability": "view",
      "type": "function"
    },
    {
      "inputs": [
        {
          "internalType": "uint256",
          "name": "tokenId",
          "type": "uint256"
        }
      ],
      "name": "getNFTInfo",
      "outputs": [
        {
          "internalType": "string",
          "name": "_uri",
          "type": "string"
        },
        {
          "internalType": "uint256",
          "name": "_maxSupply",
          "type": "uint256"
        },
        {
          "internalType": "uint256",
          "name": "_remainingSupply",
          "type": "uint256"
        },
        {
          "internalType": "uint256",
          "name": "_mintCount",
          "type": "uint256"
        },
        {
          "internalType": "enum WinMeCollectible.Rarity",
          "name": "_rarity",
          "type": "uint8"
        }
      ],
      "stateMutability": "view",
      "type": "function"
    },
    {
      "inputs": [],
      "name": "getNextTokenId",
      "outputs": [
        {
          "internalType": "uint256",
          "name": "",
          "type": "uint256"
        }
      ],
      "stateMutability": "view",
      "type": "function"
    },
    {
      "inputs": [
        {
          "internalType": "address",
          "name": "account",
          "type": "address"
        },
        {
          "internalType": "address",
          "name": "operator",
          "type": "address"
        }
      ],
      "name": "isApprovedForAll",
      "outputs": [
        {
          "internalType": "bool",
          "name": "",
          "type": "bool"
        }
      ],
      "stateMutability": "view",
      "type": "function"
    },
    {
      "inputs": [
        {
          "internalType": "uint256",
          "name": "",
          "type": "uint256"
        }
      ],
      "name": "nftInfo",
      "outputs": [
        {
          "internalType": "string",
          "name": "uri",
          "type": "string"
        },
        {
          "internalType": "uint256",
          "name": "maxSupply",
          "type": "uint256"
        },
        {
          "internalType": "uint256",
          "name": "remainingSupply",
          "type": "uint256"
        },
        {
          "internalType": "uint256",
          "name": "mintCount",
          "type": "uint256"
        },
        {
          "internalType": "bool",
          "name": "exists",
          "type": "bool"
        },
        {
          "internalType": "enum WinMeCollectible.Rarity",
          "name": "rarity",
          "type": "uint8"
        }
      ],
      "stateMutability": "view",
      "type": "function"
    },
    {
      "inputs": [],
      "name": "owner",
      "outputs": [
        {
          "internalType": "address",
          "name": "",
          "type": "address"
        }
      ],
      "stateMutability": "view",
      "type": "function"
    },
    {
      "inputs": [],
      "name": "renounceOwnership",
      "outputs": [],
      "stateMutability": "nonpayable",
      "type": "function"
    },
    {
      "inputs": [
        {
          "internalType": "address",
          "name": "from",
          "type": "address"
        },
        {
          "internalType": "address",
          "name": "to",
          "type": "address"
        },
        {
          "internalType": "uint256[]",
          "name": "ids",
          "type": "uint256[]"
        },
        {
          "internalType": "uint256[]",
          "name": "amounts",
          "type": "uint256[]"
        },
        {
          "internalType": "bytes",
          "name": "data",
          "type": "bytes"
        }
      ],
      "name": "safeBatchTransferFrom",
      "outputs": [],
      "stateMutability": "nonpayable",
      "type": "function"
    },
    {
      "inputs": [
        {
          "internalType": "address",
          "name": "from",
          "type": "address"
        },
        {
          "internalType": "address",
          "name": "to",
          "type": "address"
        },
        {
          "internalType": "uint256",
          "name": "id",
          "type": "uint256"
        },
        {
          "internalType": "uint256",
          "name": "amount",
          "type": "uint256"
        },
        {
          "internalType": "bytes",
          "name": "data",
          "type": "bytes"
        }
      ],
      "name": "safeTransferFrom",
      "outputs": [],
      "stateMutability": "nonpayable",
      "type": "function"
    },
    {
      "inputs": [
        {
          "internalType": "address",
          "name": "operator",
          "type": "address"
        },
        {
          "internalType": "bool",
          "name": "approved",
          "type": "bool"
        }
      ],
      "name": "setApprovalForAll",
      "outputs": [],
      "stateMutability": "nonpayable",
      "type": "function"
    },
    {
      "inputs": [
        {
          "internalType": "bytes4",
          "name": "interfaceId",
          "type": "bytes4"
        }
      ],
      "name": "supportsInterface",
      "outputs": [
        {
          "internalType": "bool",
          "name": "",
          "type": "bool"
        }
      ],
      "stateMutability": "view",
      "type": "function"
    },
    {
      "inputs": [
        {
          "internalType": "address",
          "name": "newOwner",
          "type": "address"
        }
      ],
      "name": "transferOwnership",
      "outputs": [],
      "stateMutability": "nonpayable",
      "type": "function"
    },
    {
      "inputs": [
        {
          "internalType": "uint256",
          "name": "tokenId",
          "type": "uint256"
        }
      ],
      "name": "uri",
      "outputs": [
        {
          "internalType": "string",
          "name": "",
          "type": "string"
        }
      ],
      "stateMutability": "view",
      "type": "function"
    }
  ],
  "transactionHash": "0x8f4ae38bb943b1014d41090f801c869f9aea56183ca5a5838026abef4fbb5360",
  "args": [
    "0x435f09831dC6DAd77163F8888E0b191858fDde71"
  ],
  "numDeployments": 1,
  "solcInputHash": "312a8b167868a2d1443c7434bdf18a30",
  "bytecode": "0x60a060405260016006553480156200001657600080fd5b506040516200309638038062003096833981016040819052620000399162000721565b60408051602081019091526000815262000053816200007d565b506200005f336200008f565b6001600160a01b03811660805262000076620000e1565b5062000b38565b60026200008b8282620007f6565b5050565b600380546001600160a01b038381166001600160a01b0319831681179093556040519116919082907f8be0079c531659141344cd1fd0a4f28419497f9722a3daafe3b4186f6b6457e090600090a35050565b6200010760405180608001604052806042815260200162003012604291396002620001c7565b6200012d60405180608001604052806042815260200162002f4c604291396001620001c7565b6200015360405180608001604052806042815260200162002fd0604291396000620001c7565b6200017960405180608001604052806042815260200162002f8e604291396001620001c7565b6200019f60405180608001604052806042815260200162002f0a604291396002620001c7565b620001c560405180608001604052806042815260200162003054604291396000620001c7565b565b620001d162000395565b6006805460009182620001e483620008d8565b909155509050600080836002811115620002025762000202620008f4565b036200021257506101f462000259565b6001836002811115620002295762000229620008f4565b0362000238575060fa62000259565b60028360028111156200024f576200024f620008f4565b0362000259575060325b6040518060c00160405280858152602001828152602001828152602001600081526020016001151581526020018460028111156200029b576200029b620008f4565b9052600083815260046020526040902081518190620002bb9082620007f6565b5060208201516001820155604082015160028083019190915560608301516003830155608083015160048301805491151560ff1983168117825560a086015193919261ff001990911661ffff199091161790610100908490811115620003255762000325620008f4565b02179055509050506200035030838360405180602001604052806000815250620003f560201b60201c565b7fb89938343cabe5e47160ae1f39c4a64e7c8b71c028432194c6d1e43ae766da488285838660405162000387949392919062000952565b60405180910390a150505050565b6003546001600160a01b03163314620001c55760405162461bcd60e51b815260206004820181905260248201527f4f776e61626c653a2063616c6c6572206973206e6f7420746865206f776e657260448201526064015b60405180910390fd5b6001600160a01b038416620004575760405162461bcd60e51b815260206004820152602160248201527f455243313135353a206d696e7420746f20746865207a65726f206164647265736044820152607360f81b6064820152608401620003ec565b336000620004658562000513565b90506000620004748562000513565b90506000868152602081815260408083206001600160a01b038b16845290915281208054879290620004a8908490620009a3565b909155505060408051878152602081018790526001600160a01b03808a1692600092918716917fc3d58168c5ae7397731d063d5bbf3d657854427343f4c083240f7aacaa2d0f62910160405180910390a46200050a8360008989898962000569565b50505050505050565b60408051600180825281830190925260609160009190602080830190803683370190505090508281600081518110620005505762000550620009bf565b602090810291909101015292915050565b505050505050565b6001600160a01b0384163b15620005615760405163f23a6e6160e01b81526001600160a01b0385169063f23a6e6190620005b09089908990889088908890600401620009d5565b6020604051808303816000875af1925050508015620005ee575060408051601f3d908101601f19168201909252620005eb9181019062000a1c565b60015b620006ae57620005fd62000a48565b806308c379a0036200063d57506200061462000a94565b806200062157506200063f565b8060405162461bcd60e51b8152600401620003ec919062000b23565b505b60405162461bcd60e51b815260206004820152603460248201527f455243313135353a207472616e7366657220746f206e6f6e2d4552433131353560448201527f526563656976657220696d706c656d656e7465720000000000000000000000006064820152608401620003ec565b6001600160e01b0319811663f23a6e6160e01b146200050a5760405162461bcd60e51b815260206004820152602860248201527f455243313135353a204552433131353552656365697665722072656a656374656044820152676420746f6b656e7360c01b6064820152608401620003ec565b6000602082840312156200073457600080fd5b81516001600160a01b03811681146200074c57600080fd5b9392505050565b634e487b7160e01b600052604160045260246000fd5b600181811c908216806200077e57607f821691505b6020821081036200079f57634e487b7160e01b600052602260045260246000fd5b50919050565b601f821115620007f1576000816000526020600020601f850160051c81016020861015620007d05750805b601f850160051c820191505b818110156200056157828155600101620007dc565b505050565b81516001600160401b0381111562000812576200081262000753565b6200082a8162000823845462000769565b84620007a5565b602080601f831160018114620008625760008415620008495750858301515b600019600386901b1c1916600185901b17855562000561565b600085815260208120601f198616915b82811015620008935788860151825594840194600190910190840162000872565b5085821015620008b25787850151600019600388901b60f8161c191681555b5050505050600190811b01905550565b634e487b7160e01b600052601160045260246000fd5b600060018201620008ed57620008ed620008c2565b5060010190565b634e487b7160e01b600052602160045260246000fd5b6000815180845260005b81811015620009325760208185018101518683018201520162000914565b506000602082860101526020601f19601f83011685010191505092915050565b8481526080602082015260006200096d60808301866200090a565b9050836040830152600383106200099457634e487b7160e01b600052602160045260246000fd5b82606083015295945050505050565b80820180821115620009b957620009b9620008c2565b92915050565b634e487b7160e01b600052603260045260246000fd5b6001600160a01b03868116825285166020820152604081018490526060810183905260a06080820181905260009062000a11908301846200090a565b979650505050505050565b60006020828403121562000a2f57600080fd5b81516001600160e01b0319811681146200074c57600080fd5b600060033d111562000a625760046000803e5060005160e01c5b90565b601f8201601f191681016001600160401b038111828210171562000a8d5762000a8d62000753565b6040525050565b600060443d101562000aa35790565b6040516003193d81016004833e81513d6001600160401b03808311602484018310171562000ad357505050505090565b828501915081518181111562000aec5750505050505090565b843d870101602082850101111562000b075750505050505090565b62000b186020828601018762000a65565b509095945050505050565b6020815260006200074c60208301846200090a565b6080516123b662000b54600039600061075c01526123b66000f3fe608060405234801561001057600080fd5b506004361061010a5760003560e01c8063715018a6116100a2578063d188929f11610071578063d188929f14610236578063db09a3f51461025a578063e985e9c51461026d578063f242432a146102a9578063f2fde38b146102bc57600080fd5b8063715018a6146101f85780638da5cb5b14610200578063a22cb4651461021b578063caa0f92a1461022e57600080fd5b80631a267c42116100de5780631a267c421461018d5780631f8bc790146101a05780632eb2c2d6146101c55780634e1273f4146101d857600080fd5b8062fdd58e1461010f57806301ffc9a7146101355780630e89341c14610158578063105dd74414610178575b600080fd5b61012261011d36600461185f565b6102cf565b6040519081526020015b60405180910390f35b61014861014336600461189f565b610368565b604051901515815260200161012c565b61016b6101663660046118c3565b610373565b60405161012c919061192c565b61018b6101863660046119e0565b610446565b005b61018b61019b366004611a6a565b6105f0565b6101b36101ae3660046118c3565b6108bd565b60405161012c96959493929190611ae9565b61018b6101d3366004611bca565b610980565b6101eb6101e6366004611c74565b6109cc565b60405161012c9190611d71565b61018b610aee565b6003546040516001600160a01b03909116815260200161012c565b61018b610229366004611d84565b610b02565b600654610122565b6102496102443660046118c3565b610b11565b60405161012c959493929190611db5565b6101226102683660046118c3565b610c7e565b61014861027b366004611df3565b6001600160a01b03918216600090815260016020908152604080832093909416825291909152205460ff1690565b61018b6102b7366004611e26565b610cc5565b61018b6102ca366004611e8b565b610d0a565b60006001600160a01b03831661033f5760405162461bcd60e51b815260206004820152602a60248201527f455243313135353a2061646472657373207a65726f206973206e6f742061207660448201526930b634b21037bbb732b960b11b60648201526084015b60405180910390fd5b506000818152602081815260408083206001600160a01b03861684529091529020545b92915050565b600061036282610d83565b6000818152600460208190526040909120015460609060ff166103a85760405162461bcd60e51b815260040161033690611ea6565b600082815260046020526040902080546103c190611ed2565b80601f01602080910402602001604051908101604052809291908181526020018280546103ed90611ed2565b801561043a5780601f1061040f5761010080835404028352916020019161043a565b820191906000526020600020905b81548152906001019060200180831161041d57829003601f168201915b50505050509050919050565b61044e610dd3565b600680546000918261045f83611f22565b90915550905060008083600281111561047a5761047a611ab1565b0361048857506101f46104c6565b600183600281111561049c5761049c611ab1565b036104a9575060fa6104c6565b60028360028111156104bd576104bd611ab1565b036104c6575060325b6040518060c001604052808581526020018281526020018281526020016000815260200160011515815260200184600281111561050557610505611ab1565b90526000838152600460205260409020815181906105239082611f88565b5060208201516001820155604082015160028083019190915560608301516003830155608083015160048301805491151560ff1983168117825560a086015193919261ff001990911661ffff19909116179061010090849081111561058a5761058a611ab1565b02179055509050506105ad30838360405180602001604052806000815250610e2d565b7fb89938343cabe5e47160ae1f39c4a64e7c8b71c028432194c6d1e43ae766da48828583866040516105e29493929190612048565b60405180910390a150505050565b6000828152600460208190526040909120015460ff166106225760405162461bcd60e51b815260040161033690611ea6565b600581604051610632919061207f565b9081526040519081900360200190205460ff161561068b5760405162461bcd60e51b815260206004820152601660248201527514da59db985d1d5c9948185b1c9958591e481d5cd95960521b6044820152606401610336565b6000828152600460205260409020600201546106da5760405162461bcd60e51b815260206004820152600e60248201526d139bc81cdd5c1c1b1e481b19599d60921b6044820152606401610336565b60008281526004602090815260408083206003015481516bffffffffffffffffffffffff193360601b1681850152603481018790526054808201929092528251808203909201825260740190915280519101207f19457468657265756d205369676e6564204d6573736167653a0a3332000000008252601c819052603c9091207f00000000000000000000000000000000000000000000000000000000000000006001600160a01b031661078e8285610f41565b6001600160a01b0316146107d85760405162461bcd60e51b8152602060048201526011602482015270496e76616c6964207369676e617475726560781b6044820152606401610336565b60016005846040516107ea919061207f565b9081526040805160209281900383019020805460ff1916931515939093179092556000868152600490915290812060030180549161082783611f22565b9190505550610849303386600160405180602001604052806000815250610f5d565b60008481526004602052604081206002018054916108668361209b565b90915550506000848152600460209081526040918290206003015482518781529182015233917fd93bbb9e10b7af5aa4b410ac845ae87a717d305e8a4777959ad1dd06e6a1ac98910160405180910390a250505050565b6004602052600090815260409020805481906108d890611ed2565b80601f016020809104026020016040519081016040528092919081815260200182805461090490611ed2565b80156109515780601f1061092657610100808354040283529160200191610951565b820191906000526020600020905b81548152906001019060200180831161093457829003601f168201915b505050506001830154600284015460038501546004909501549394919390925060ff8082169161010090041686565b6001600160a01b03851633148061099c575061099c853361027b565b6109b85760405162461bcd60e51b8152600401610336906120b2565b6109c58585858585611087565b5050505050565b60608151835114610a315760405162461bcd60e51b815260206004820152602960248201527f455243313135353a206163636f756e747320616e6420696473206c656e677468604482015268040dad2e6dac2e8c6d60bb1b6064820152608401610336565b6000835167ffffffffffffffff811115610a4d57610a4d61193f565b604051908082528060200260200182016040528015610a76578160200160208202803683370190505b50905060005b8451811015610ae657610ac1858281518110610a9a57610a9a612100565b6020026020010151858381518110610ab457610ab4612100565b60200260200101516102cf565b828281518110610ad357610ad3612100565b6020908102919091010152600101610a7c565b509392505050565b610af6610dd3565b610b00600061125d565b565b610b0d3383836112af565b5050565b6000818152600460208190526040822001546060919081908190819060ff16610b4c5760405162461bcd60e51b815260040161033690611ea6565b600086815260046020526040808220815160c08101909252805482908290610b7390611ed2565b80601f0160208091040260200160405190810160405280929190818152602001828054610b9f90611ed2565b8015610bec5780601f10610bc157610100808354040283529160200191610bec565b820191906000526020600020905b815481529060010190602001808311610bcf57829003601f168201915b505050918352505060018201546020820152600280830154604083015260038301546060830152600483015460ff8082161515608085015260a0909301926101009091041690811115610c4157610c41611ab1565b6002811115610c5257610c52611ab1565b905250805160208201516040830151606084015160a090940151929b919a509850919650945092505050565b60008181526004602081905260408220015460ff16610caf5760405162461bcd60e51b815260040161033690611ea6565b5060009081526004602052604090206003015490565b6001600160a01b038516331480610ce15750610ce1853361027b565b610cfd5760405162461bcd60e51b8152600401610336906120b2565b6109c58585858585610f5d565b610d12610dd3565b6001600160a01b038116610d775760405162461bcd60e51b815260206004820152602660248201527f4f776e61626c653a206e6577206f776e657220697320746865207a65726f206160448201526564647265737360d01b6064820152608401610336565b610d808161125d565b50565b60006001600160e01b03198216636cdb3d1360e11b1480610db457506001600160e01b031982166303a24d0760e21b145b8061036257506301ffc9a760e01b6001600160e01b0319831614610362565b6003546001600160a01b03163314610b005760405162461bcd60e51b815260206004820181905260248201527f4f776e61626c653a2063616c6c6572206973206e6f7420746865206f776e65726044820152606401610336565b6001600160a01b038416610e8d5760405162461bcd60e51b815260206004820152602160248201527f455243313135353a206d696e7420746f20746865207a65726f206164647265736044820152607360f81b6064820152608401610336565b336000610e998561138f565b90506000610ea68561138f565b90506000868152602081815260408083206001600160a01b038b16845290915281208054879290610ed8908490612116565b909155505060408051878152602081018790526001600160a01b03808a1692600092918716917fc3d58168c5ae7397731d063d5bbf3d657854427343f4c083240f7aacaa2d0f62910160405180910390a4610f38836000898989896113da565b50505050505050565b6000806000610f508585611535565b91509150610ae68161157a565b6001600160a01b038416610f835760405162461bcd60e51b815260040161033690612129565b336000610f8f8561138f565b90506000610f9c8561138f565b90506000868152602081815260408083206001600160a01b038c16845290915290205485811015610fdf5760405162461bcd60e51b81526004016103369061216e565b6000878152602081815260408083206001600160a01b038d8116855292528083208985039055908a1682528120805488929061101c908490612116565b909155505060408051888152602081018890526001600160a01b03808b16928c821692918816917fc3d58168c5ae7397731d063d5bbf3d657854427343f4c083240f7aacaa2d0f62910160405180910390a461107c848a8a8a8a8a6113da565b505050505050505050565b81518351146110e95760405162461bcd60e51b815260206004820152602860248201527f455243313135353a2069647320616e6420616d6f756e7473206c656e677468206044820152670dad2e6dac2e8c6d60c31b6064820152608401610336565b6001600160a01b03841661110f5760405162461bcd60e51b815260040161033690612129565b3360005b84518110156111ef57600085828151811061113057611130612100565b60200260200101519050600085838151811061114e5761114e612100565b602090810291909101810151600084815280835260408082206001600160a01b038e16835290935291909120549091508181101561119e5760405162461bcd60e51b81526004016103369061216e565b6000838152602081815260408083206001600160a01b038e8116855292528083208585039055908b168252812080548492906111db908490612116565b909155505060019093019250611113915050565b50846001600160a01b0316866001600160a01b0316826001600160a01b03167f4a39dc06d4c0dbc64b70af90fd698a233a518aa5d07e595d983b8c0526c8f7fb878760405161123f9291906121b8565b60405180910390a46112558187878787876116c4565b505050505050565b600380546001600160a01b038381166001600160a01b0319831681179093556040519116919082907f8be0079c531659141344cd1fd0a4f28419497f9722a3daafe3b4186f6b6457e090600090a35050565b816001600160a01b0316836001600160a01b0316036113225760405162461bcd60e51b815260206004820152602960248201527f455243313135353a2073657474696e6720617070726f76616c20737461747573604482015268103337b91039b2b63360b91b6064820152608401610336565b6001600160a01b03838116600081815260016020908152604080832094871680845294825291829020805460ff191686151590811790915591519182527f17307eab39ab6107e8899845ad3d59bd9653f200f220920489ca2b5937696c31910160405180910390a3505050565b604080516001808252818301909252606091600091906020808301908036833701905050905082816000815181106113c9576113c9612100565b602090810291909101015292915050565b6001600160a01b0384163b156112555760405163f23a6e6160e01b81526001600160a01b0385169063f23a6e619061141e90899089908890889088906004016121dd565b6020604051808303816000875af1925050508015611459575060408051601f3d908101601f1916820190925261145691810190612217565b60015b61150557611465612234565b806308c379a00361149e5750611479612250565b8061148457506114a0565b8060405162461bcd60e51b8152600401610336919061192c565b505b60405162461bcd60e51b815260206004820152603460248201527f455243313135353a207472616e7366657220746f206e6f6e2d455243313135356044820152732932b1b2b4bb32b91034b6b83632b6b2b73a32b960611b6064820152608401610336565b6001600160e01b0319811663f23a6e6160e01b14610f385760405162461bcd60e51b8152600401610336906122da565b600080825160410361156b5760208301516040840151606085015160001a61155f8782858561177f565b94509450505050611573565b506000905060025b9250929050565b600081600481111561158e5761158e611ab1565b036115965750565b60018160048111156115aa576115aa611ab1565b036115f75760405162461bcd60e51b815260206004820152601860248201527f45434453413a20696e76616c6964207369676e617475726500000000000000006044820152606401610336565b600281600481111561160b5761160b611ab1565b036116585760405162461bcd60e51b815260206004820152601f60248201527f45434453413a20696e76616c6964207369676e6174757265206c656e677468006044820152606401610336565b600381600481111561166c5761166c611ab1565b03610d805760405162461bcd60e51b815260206004820152602260248201527f45434453413a20696e76616c6964207369676e6174757265202773272076616c604482015261756560f01b6064820152608401610336565b6001600160a01b0384163b156112555760405163bc197c8160e01b81526001600160a01b0385169063bc197c81906117089089908990889088908890600401612322565b6020604051808303816000875af1925050508015611743575060408051601f3d908101601f1916820190925261174091810190612217565b60015b61174f57611465612234565b6001600160e01b0319811663bc197c8160e01b14610f385760405162461bcd60e51b8152600401610336906122da565b6000807f7fffffffffffffffffffffffffffffff5d576e7357a4501ddfe92f46681b20a08311156117b6575060009050600361183a565b6040805160008082526020820180845289905260ff881692820192909252606081018690526080810185905260019060a0016020604051602081039080840390855afa15801561180a573d6000803e3d6000fd5b5050604051601f1901519150506001600160a01b0381166118335760006001925092505061183a565b9150600090505b94509492505050565b80356001600160a01b038116811461185a57600080fd5b919050565b6000806040838503121561187257600080fd5b61187b83611843565b946020939093013593505050565b6001600160e01b031981168114610d8057600080fd5b6000602082840312156118b157600080fd5b81356118bc81611889565b9392505050565b6000602082840312156118d557600080fd5b5035919050565b60005b838110156118f75781810151838201526020016118df565b50506000910152565b600081518084526119188160208601602086016118dc565b601f01601f19169290920160200192915050565b6020815260006118bc6020830184611900565b634e487b7160e01b600052604160045260246000fd5b601f8201601f1916810167ffffffffffffffff8111828210171561197b5761197b61193f565b6040525050565b600067ffffffffffffffff83111561199c5761199c61193f565b6040516119b3601f8501601f191660200182611955565b8091508381528484840111156119c857600080fd5b83836020830137600060208583010152509392505050565b600080604083850312156119f357600080fd5b823567ffffffffffffffff811115611a0a57600080fd5b8301601f81018513611a1b57600080fd5b611a2a85823560208401611982565b925050602083013560038110611a3f57600080fd5b809150509250929050565b600082601f830112611a5b57600080fd5b6118bc83833560208501611982565b60008060408385031215611a7d57600080fd5b82359150602083013567ffffffffffffffff811115611a9b57600080fd5b611aa785828601611a4a565b9150509250929050565b634e487b7160e01b600052602160045260246000fd5b60038110611ae557634e487b7160e01b600052602160045260246000fd5b9052565b60c081526000611afc60c0830189611900565b90508660208301528560408301528460608301528315156080830152611b2560a0830184611ac7565b979650505050505050565b600067ffffffffffffffff821115611b4a57611b4a61193f565b5060051b60200190565b600082601f830112611b6557600080fd5b81356020611b7282611b30565b604051611b7f8282611955565b80915083815260208101915060208460051b870101935086841115611ba357600080fd5b602086015b84811015611bbf5780358352918301918301611ba8565b509695505050505050565b600080600080600060a08688031215611be257600080fd5b611beb86611843565b9450611bf960208701611843565b9350604086013567ffffffffffffffff80821115611c1657600080fd5b611c2289838a01611b54565b94506060880135915080821115611c3857600080fd5b611c4489838a01611b54565b93506080880135915080821115611c5a57600080fd5b50611c6788828901611a4a565b9150509295509295909350565b60008060408385031215611c8757600080fd5b823567ffffffffffffffff80821115611c9f57600080fd5b818501915085601f830112611cb357600080fd5b81356020611cc082611b30565b604051611ccd8282611955565b83815260059390931b8501820192828101915089841115611ced57600080fd5b948201945b83861015611d1257611d0386611843565b82529482019490820190611cf2565b96505086013592505080821115611d2857600080fd5b50611aa785828601611b54565b60008151808452602080850194506020840160005b83811015611d6657815187529582019590820190600101611d4a565b509495945050505050565b6020815260006118bc6020830184611d35565b60008060408385031215611d9757600080fd5b611da083611843565b915060208301358015158114611a3f57600080fd5b60a081526000611dc860a0830188611900565b9050856020830152846040830152836060830152611de96080830184611ac7565b9695505050505050565b60008060408385031215611e0657600080fd5b611e0f83611843565b9150611e1d60208401611843565b90509250929050565b600080600080600060a08688031215611e3e57600080fd5b611e4786611843565b9450611e5560208701611843565b93506040860135925060608601359150608086013567ffffffffffffffff811115611e7f57600080fd5b611c6788828901611a4a565b600060208284031215611e9d57600080fd5b6118bc82611843565b60208082526012908201527113919508191bd95cc81b9bdd08195e1a5cdd60721b604082015260600190565b600181811c90821680611ee657607f821691505b602082108103611f0657634e487b7160e01b600052602260045260246000fd5b50919050565b634e487b7160e01b600052601160045260246000fd5b600060018201611f3457611f34611f0c565b5060010190565b601f821115611f83576000816000526020600020601f850160051c81016020861015611f645750805b601f850160051c820191505b8181101561125557828155600101611f70565b505050565b815167ffffffffffffffff811115611fa257611fa261193f565b611fb681611fb08454611ed2565b84611f3b565b602080601f831160018114611feb5760008415611fd35750858301515b600019600386901b1c1916600185901b178555611255565b600085815260208120601f198616915b8281101561201a57888601518255948401946001909101908401611ffb565b50858210156120385787850151600019600388901b60f8161c191681555b5050505050600190811b01905550565b8481526080602082015260006120616080830186611900565b90508360408301526120766060830184611ac7565b95945050505050565b600082516120918184602087016118dc565b9190910192915050565b6000816120aa576120aa611f0c565b506000190190565b6020808252602e908201527f455243313135353a2063616c6c6572206973206e6f7420746f6b656e206f776e60408201526d195c881bdc88185c1c1c9bdd995960921b606082015260800190565b634e487b7160e01b600052603260045260246000fd5b8082018082111561036257610362611f0c565b60208082526025908201527f455243313135353a207472616e7366657220746f20746865207a65726f206164604082015264647265737360d81b606082015260800190565b6020808252602a908201527f455243313135353a20696e73756666696369656e742062616c616e636520666f60408201526939103a3930b739b332b960b11b606082015260800190565b6040815260006121cb6040830185611d35565b82810360208401526120768185611d35565b6001600160a01b03868116825285166020820152604081018490526060810183905260a060808201819052600090611b2590830184611900565b60006020828403121561222957600080fd5b81516118bc81611889565b600060033d111561224d5760046000803e5060005160e01c5b90565b600060443d101561225e5790565b6040516003193d81016004833e81513d67ffffffffffffffff816024840111818411171561228e57505050505090565b82850191508151818111156122a65750505050505090565b843d87010160208285010111156122c05750505050505090565b6122cf60208286010187611955565b509095945050505050565b60208082526028908201527f455243313135353a204552433131353552656365697665722072656a656374656040820152676420746f6b656e7360c01b606082015260800190565b6001600160a01b0386811682528516602082015260a06040820181905260009061234e90830186611d35565b82810360608401526123608186611d35565b905082810360808401526123748185611900565b9897505050505050505056fea264697066735822122021c799767c9e197b1ff6a6720c1a451dfe05d4974ef4d1805c92a5a074d3290f64736f6c63430008180033697066733a2f2f6261666b7265696433743734667262667932327637633375667a657132623770377a3379677963796c646d716d6d786f33656d78656e6a6d327369697066733a2f2f6261667962656961717a323532373670326c3366796b68366667706564357678363436367a6c726f62786435706b6934357164746b327a68686a34697066733a2f2f626166796265696734693534757a6e34796d6269697a67366b7a6174796e3534716a67616b6a647066797275787970366f3232376a346e77633679697066733a2f2f6261666b726569623435626b63676776657471656e653576777874727a6e786e63623433707a6b6669746933733433636b6c61626a6e6137666569697066733a2f2f6261667962656962616437767a627072746b786e377075696e7374366763626d7a64756d6c6e6969683564653275366e6465333433637371787961697066733a2f2f626166796265696875356c6365786778646e6c33347132646a726d33747261756c3567367434797672687162796335777734726b7a727964666971",
  "devdoc": {
    "events": {
      "ApprovalForAll(address,address,bool)": {
        "details": "Emitted when `account` grants or revokes permission to `operator` to transfer their tokens, according to `approved`."
      },
      "TransferBatch(address,address,address,uint256[],uint256[])": {
        "details": "Equivalent to multiple {TransferSingle} events, where `operator`, `from` and `to` are the same for all transfers."
      },
      "TransferSingle(address,address,address,uint256,uint256)": {
        "details": "Emitted when `value` tokens of token type `id` are transferred from `from` to `to` by `operator`."
      },
      "URI(string,uint256)": {
        "details": "Emitted when the URI for token type `id` changes to `value`, if it is a non-programmatic URI. If an {URI} event was emitted for `id`, the standard https://eips.ethereum.org/EIPS/eip-1155#metadata-extensions[guarantees] that `value` will equal the value returned by {IERC1155MetadataURI-uri}."
      }
    },
    "kind": "dev",
    "methods": {
      "balanceOf(address,uint256)": {
        "details": "See {IERC1155-balanceOf}. Requirements: - `account` cannot be the zero address."
      },
      "balanceOfBatch(address[],uint256[])": {
        "details": "See {IERC1155-balanceOfBatch}. Requirements: - `accounts` and `ids` must have the same length."
      },
      "isApprovedForAll(address,address)": {
        "details": "See {IERC1155-isApprovedForAll}."
      },
      "owner()": {
        "details": "Returns the address of the current owner."
      },
      "renounceOwnership()": {
        "details": "Leaves the contract without owner. It will not be possible to call `onlyOwner` functions. Can only be called by the current owner. NOTE: Renouncing ownership will leave the contract without an owner, thereby disabling any functionality that is only available to the owner."
      },
      "safeBatchTransferFrom(address,address,uint256[],uint256[],bytes)": {
        "details": "See {IERC1155-safeBatchTransferFrom}."
      },
      "safeTransferFrom(address,address,uint256,uint256,bytes)": {
        "details": "See {IERC1155-safeTransferFrom}."
      },
      "setApprovalForAll(address,bool)": {
        "details": "See {IERC1155-setApprovalForAll}."
      },
      "supportsInterface(bytes4)": {
        "details": "See {IERC165-supportsInterface}."
      },
      "transferOwnership(address)": {
        "details": "Transfers ownership of the contract to a new account (`newOwner`). Can only be called by the current owner."
      }
    },
    "version": 1
  },
  "userdoc": {
    "kind": "user",
    "methods": {},
    "version": 1
  },
  "storageLayout": {
    "storage": [
      {
        "astId": 138,
        "contract": "contracts/WinMeCollectible.sol:WinMeCollectible",
        "label": "_balances",
        "offset": 0,
        "slot": "0",
        "type": "t_mapping(t_uint256,t_mapping(t_address,t_uint256))"
      },
      {
        "astId": 144,
        "contract": "contracts/WinMeCollectible.sol:WinMeCollectible",
        "label": "_operatorApprovals",
        "offset": 0,
        "slot": "1",
        "type": "t_mapping(t_address,t_mapping(t_address,t_bool))"
      },
      {
        "astId": 146,
        "contract": "contracts/WinMeCollectible.sol:WinMeCollectible",
        "label": "_uri",
        "offset": 0,
        "slot": "2",
        "type": "t_string_storage"
      },
      {
        "astId": 7,
        "contract": "contracts/WinMeCollectible.sol:WinMeCollectible",
        "label": "_owner",
        "offset": 0,
        "slot": "3",
        "type": "t_address"
      },
      {
        "astId": 3510,
        "contract": "contracts/WinMeCollectible.sol:WinMeCollectible",
        "label": "nftInfo",
        "offset": 0,
        "slot": "4",
        "type": "t_mapping(t_uint256,t_struct(NFTInfo)3505_storage)"
      },
      {
        "astId": 3516,
        "contract": "contracts/WinMeCollectible.sol:WinMeCollectible",
        "label": "_usedSignatures",
        "offset": 0,
        "slot": "5",
        "type": "t_mapping(t_bytes_memory_ptr,t_bool)"
      },
      {
        "astId": 3519,
        "contract": "contracts/WinMeCollectible.sol:WinMeCollectible",
        "label": "_nextTokenId",
        "offset": 0,
        "slot": "6",
        "type": "t_uint256"
      }
    ],
    "types": {
      "t_address": {
        "encoding": "inplace",
        "label": "address",
        "numberOfBytes": "20"
      },
      "t_bool": {
        "encoding": "inplace",
        "label": "bool",
        "numberOfBytes": "1"
      },
      "t_bytes_memory_ptr": {
        "encoding": "bytes",
        "label": "bytes",
        "numberOfBytes": "32"
      },
      "t_enum(Rarity)3491": {
        "encoding": "inplace",
        "label": "enum WinMeCollectible.Rarity",
        "numberOfBytes": "1"
      },
      "t_mapping(t_address,t_bool)": {
        "encoding": "mapping",
        "key": "t_address",
        "label": "mapping(address => bool)",
        "numberOfBytes": "32",
        "value": "t_bool"
      },
      "t_mapping(t_address,t_mapping(t_address,t_bool))": {
        "encoding": "mapping",
        "key": "t_address",
        "label": "mapping(address => mapping(address => bool))",
        "numberOfBytes": "32",
        "value": "t_mapping(t_address,t_bool)"
      },
      "t_mapping(t_address,t_uint256)": {
        "encoding": "mapping",
        "key": "t_address",
        "label": "mapping(address => uint256)",
        "numberOfBytes": "32",
        "value": "t_uint256"
      },
      "t_mapping(t_bytes_memory_ptr,t_bool)": {
        "encoding": "mapping",
        "key": "t_bytes_memory_ptr",
        "label": "mapping(bytes => bool)",
        "numberOfBytes": "32",
        "value": "t_bool"
      },
      "t_mapping(t_uint256,t_mapping(t_address,t_uint256))": {
        "encoding": "mapping",
        "key": "t_uint256",
        "label": "mapping(uint256 => mapping(address => uint256))",
        "numberOfBytes": "32",
        "value": "t_mapping(t_address,t_uint256)"
      },
      "t_mapping(t_uint256,t_struct(NFTInfo)3505_storage)": {
        "encoding": "mapping",
        "key": "t_uint256",
        "label": "mapping(uint256 => struct WinMeCollectible.NFTInfo)",
        "numberOfBytes": "32",
        "value": "t_struct(NFTInfo)3505_storage"
      },
      "t_string_storage": {
        "encoding": "bytes",
        "label": "string",
        "numberOfBytes": "32"
      },
      "t_struct(NFTInfo)3505_storage": {
        "encoding": "inplace",
        "label": "struct WinMeCollectible.NFTInfo",
        "members": [
          {
            "astId": 3493,
            "contract": "contracts/WinMeCollectible.sol:WinMeCollectible",
            "label": "uri",
            "offset": 0,
            "slot": "0",
            "type": "t_string_storage"
          },
          {
            "astId": 3495,
            "contract": "contracts/WinMeCollectible.sol:WinMeCollectible",
            "label": "maxSupply",
            "offset": 0,
            "slot": "1",
            "type": "t_uint256"
          },
          {
            "astId": 3497,
            "contract": "contracts/WinMeCollectible.sol:WinMeCollectible",
            "label": "remainingSupply",
            "offset": 0,
            "slot": "2",
            "type": "t_uint256"
          },
          {
            "astId": 3499,
            "contract": "contracts/WinMeCollectible.sol:WinMeCollectible",
            "label": "mintCount",
            "offset": 0,
            "slot": "3",
            "type": "t_uint256"
          },
          {
            "astId": 3501,
            "contract": "contracts/WinMeCollectible.sol:WinMeCollectible",
            "label": "exists",
            "offset": 0,
            "slot": "4",
            "type": "t_bool"
          },
          {
            "astId": 3504,
            "contract": "contracts/WinMeCollectible.sol:WinMeCollectible",
            "label": "rarity",
            "offset": 1,
            "slot": "4",
            "type": "t_enum(Rarity)3491"
          }
        ],
        "numberOfBytes": "160"
      },
      "t_uint256": {
        "encoding": "inplace",
        "label": "uint256",
        "numberOfBytes": "32"
      }
    }
  }
}